{
  "contractName": "Market",
  "abi": [
    {
      "constant": false,
      "inputs": [
        {
          "name": "spender",
          "type": "address"
        },
        {
          "name": "value",
          "type": "uint256"
        }
      ],
      "name": "approve",
      "outputs": [
        {
          "name": "",
          "type": "bool"
        }
      ],
      "payable": false,
      "stateMutability": "nonpayable",
      "type": "function"
    },
    {
      "constant": true,
      "inputs": [],
      "name": "totalSupply",
      "outputs": [
        {
          "name": "",
          "type": "uint256"
        }
      ],
      "payable": false,
      "stateMutability": "view",
      "type": "function"
    },
    {
      "constant": false,
      "inputs": [
        {
          "name": "sender",
          "type": "address"
        },
        {
          "name": "recipient",
          "type": "address"
        },
        {
          "name": "amount",
          "type": "uint256"
        }
      ],
      "name": "transferFrom",
      "outputs": [
        {
          "name": "",
          "type": "bool"
        }
      ],
      "payable": false,
      "stateMutability": "nonpayable",
      "type": "function"
    },
    {
      "constant": false,
      "inputs": [
        {
          "name": "spender",
          "type": "address"
        },
        {
          "name": "addedValue",
          "type": "uint256"
        }
      ],
      "name": "increaseAllowance",
      "outputs": [
        {
          "name": "",
          "type": "bool"
        }
      ],
      "payable": false,
      "stateMutability": "nonpayable",
      "type": "function"
    },
    {
      "constant": true,
      "inputs": [
        {
          "name": "account",
          "type": "address"
        }
      ],
      "name": "balanceOf",
      "outputs": [
        {
          "name": "",
          "type": "uint256"
        }
      ],
      "payable": false,
      "stateMutability": "view",
      "type": "function"
    },
    {
      "constant": false,
      "inputs": [
        {
          "name": "spender",
          "type": "address"
        },
        {
          "name": "subtractedValue",
          "type": "uint256"
        }
      ],
      "name": "decreaseAllowance",
      "outputs": [
        {
          "name": "",
          "type": "bool"
        }
      ],
      "payable": false,
      "stateMutability": "nonpayable",
      "type": "function"
    },
    {
      "constant": false,
      "inputs": [
        {
          "name": "recipient",
          "type": "address"
        },
        {
          "name": "amount",
          "type": "uint256"
        }
      ],
      "name": "transfer",
      "outputs": [
        {
          "name": "",
          "type": "bool"
        }
      ],
      "payable": false,
      "stateMutability": "nonpayable",
      "type": "function"
    },
    {
      "constant": true,
      "inputs": [
        {
          "name": "owner",
          "type": "address"
        },
        {
          "name": "spender",
          "type": "address"
        }
      ],
      "name": "allowance",
      "outputs": [
        {
          "name": "",
          "type": "uint256"
        }
      ],
      "payable": false,
      "stateMutability": "view",
      "type": "function"
    },
    {
      "anonymous": false,
      "inputs": [
        {
          "indexed": true,
          "name": "from",
          "type": "address"
        },
        {
          "indexed": true,
          "name": "to",
          "type": "address"
        },
        {
          "indexed": false,
          "name": "value",
          "type": "uint256"
        }
      ],
      "name": "Transfer",
      "type": "event"
    },
    {
      "anonymous": false,
      "inputs": [
        {
          "indexed": true,
          "name": "owner",
          "type": "address"
        },
        {
          "indexed": true,
          "name": "spender",
          "type": "address"
        },
        {
          "indexed": false,
          "name": "value",
          "type": "uint256"
        }
      ],
      "name": "Approval",
      "type": "event"
    },
    {
      "constant": false,
      "inputs": [
        {
          "name": "_name",
          "type": "string"
        },
        {
          "name": "_description",
          "type": "string"
        },
        {
          "name": "_price",
          "type": "uint256"
        },
        {
          "name": "_shares",
          "type": "uint256"
        }
      ],
      "name": "createProject",
      "outputs": [
        {
          "name": "",
          "type": "address"
        }
      ],
      "payable": false,
      "stateMutability": "nonpayable",
      "type": "function"
    },
    {
      "constant": true,
      "inputs": [
        {
          "name": "name",
          "type": "string"
        }
      ],
      "name": "getProjectAddress",
      "outputs": [
        {
          "name": "",
          "type": "address"
        }
      ],
      "payable": false,
      "stateMutability": "view",
      "type": "function"
    },
    {
      "constant": true,
      "inputs": [
        {
          "name": "name",
          "type": "string"
        }
      ],
      "name": "getProjectDescription",
      "outputs": [
        {
          "name": "",
          "type": "string"
        }
      ],
      "payable": false,
      "stateMutability": "view",
      "type": "function"
    },
    {
      "constant": true,
      "inputs": [
        {
          "name": "name",
          "type": "string"
        }
      ],
      "name": "getProjectOwner",
      "outputs": [
        {
          "name": "",
          "type": "address"
        }
      ],
      "payable": false,
      "stateMutability": "view",
      "type": "function"
    },
    {
      "constant": true,
      "inputs": [
        {
          "name": "name",
          "type": "string"
        }
      ],
      "name": "getSharesCount",
      "outputs": [
        {
          "name": "",
          "type": "uint256"
        }
      ],
      "payable": false,
      "stateMutability": "view",
      "type": "function"
    },
    {
      "constant": true,
      "inputs": [
        {
          "name": "name",
          "type": "string"
        },
        {
          "name": "client",
          "type": "address"
        }
      ],
      "name": "getSharesClientCount",
      "outputs": [
        {
          "name": "",
          "type": "uint256"
        }
      ],
      "payable": false,
      "stateMutability": "view",
      "type": "function"
    },
    {
      "constant": true,
      "inputs": [
        {
          "name": "name",
          "type": "string"
        }
      ],
      "name": "getPrice",
      "outputs": [
        {
          "name": "",
          "type": "uint256"
        }
      ],
      "payable": false,
      "stateMutability": "view",
      "type": "function"
    },
    {
      "constant": false,
      "inputs": [
        {
          "name": "name",
          "type": "string"
        },
        {
          "name": "_shares",
          "type": "uint256"
        }
      ],
      "name": "buyShares",
      "outputs": [],
      "payable": true,
      "stateMutability": "payable",
      "type": "function"
    },
    {
      "constant": false,
      "inputs": [
        {
          "name": "name",
          "type": "string"
        },
        {
          "name": "_shares",
          "type": "uint256"
        }
      ],
      "name": "sellShares",
      "outputs": [],
      "payable": true,
      "stateMutability": "payable",
      "type": "function"
    }
  ],
  "bytecode": "0x608060405234801561001057600080fd5b506143db806100206000396000f3fe608060405260043610620001165760003560e01c806370a0823111620000a3578063a9059cbb116200006d578063a9059cbb1462000a76578063c74702191462000aed578063caff564c1462000bd0578063dd62ed3e1462000c9b578063e750b5c01462000d245762000116565b806370a08231146200070e57806387b1dc3c146200077757806394ba97091462000842578063a457c2d714620009ff5762000116565b80633950935111620000e557806339509351146200035a5780634e9cc73114620003d1578063524f388914620004e05780635ec2dca214620005c35762000116565b8063095ea7b3146200011b57806318160ddd146200019257806323b872dd14620001c057806326e82a831462000257575b600080fd5b3480156200012857600080fd5b5062000178600480360360408110156200014157600080fd5b81019080803573ffffffffffffffffffffffffffffffffffffffff1690602001909291908035906020019092919050505062000e33565b604051808215151515815260200191505060405180910390f35b3480156200019f57600080fd5b50620001aa62000e4c565b6040518082815260200191505060405180910390f35b348015620001cd57600080fd5b506200023d60048036036060811015620001e657600080fd5b81019080803573ffffffffffffffffffffffffffffffffffffffff169060200190929190803573ffffffffffffffffffffffffffffffffffffffff1690602001909291908035906020019092919050505062000e56565b604051808215151515815260200191505060405180910390f35b3480156200026457600080fd5b5062000344600480360360408110156200027d57600080fd5b81019080803590602001906401000000008111156200029b57600080fd5b820183602082011115620002ae57600080fd5b80359060200191846001830284011164010000000083111715620002d157600080fd5b91908080601f016020809104026020016040519081016040528093929190818152602001838380828437600081840152601f19601f820116905080830192505050505050509192919290803573ffffffffffffffffffffffffffffffffffffffff16906020019092919050505062000f0d565b6040518082815260200191505060405180910390f35b3480156200036757600080fd5b50620003b7600480360360408110156200038057600080fd5b81019080803573ffffffffffffffffffffffffffffffffffffffff169060200190929190803590602001909291905050506200118b565b604051808215151515815260200191505060405180910390f35b348015620003de57600080fd5b506200049e60048036036020811015620003f757600080fd5b81019080803590602001906401000000008111156200041557600080fd5b8201836020820111156200042857600080fd5b803590602001918460018302840111640100000000831117156200044b57600080fd5b91908080601f016020809104026020016040519081016040528093929190818152602001838380828437600081840152601f19601f82011690508083019250505050505050919291929050505062001234565b604051808273ffffffffffffffffffffffffffffffffffffffff1673ffffffffffffffffffffffffffffffffffffffff16815260200191505060405180910390f35b348015620004ed57600080fd5b50620005ad600480360360208110156200050657600080fd5b81019080803590602001906401000000008111156200052457600080fd5b8201836020820111156200053757600080fd5b803590602001918460018302840111640100000000831117156200055a57600080fd5b91908080601f016020809104026020016040519081016040528093929190818152602001838380828437600081840152601f19601f8201169050808301925050505050505091929192905050506200147a565b6040518082815260200191505060405180910390f35b348015620005d057600080fd5b506200069060048036036020811015620005e957600080fd5b81019080803590602001906401000000008111156200060757600080fd5b8201836020820111156200061a57600080fd5b803590602001918460018302840111640100000000831117156200063d57600080fd5b91908080601f016020809104026020016040519081016040528093929190818152602001838380828437600081840152601f19601f820116905080830192505050505050509192919290505050620016c0565b6040518080602001828103825283818151815260200191508051906020019080838360005b83811015620006d2578082015181840152602081019050620006b5565b50505050905090810190601f168015620007005780820380516001836020036101000a031916815260200191505b509250505060405180910390f35b3480156200071b57600080fd5b5062000761600480360360208110156200073457600080fd5b81019080803573ffffffffffffffffffffffffffffffffffffffff16906020019092919050505062001960565b6040518082815260200191505060405180910390f35b62000840600480360360408110156200078f57600080fd5b8101908080359060200190640100000000811115620007ad57600080fd5b820183602082011115620007c057600080fd5b80359060200191846001830284011164010000000083111715620007e357600080fd5b91908080601f016020809104026020016040519081016040528093929190818152602001838380828437600081840152601f19601f82011690508083019250505050505050919291929080359060200190929190505050620019a8565b005b3480156200084f57600080fd5b50620009bd600480360360808110156200086857600080fd5b81019080803590602001906401000000008111156200088657600080fd5b8201836020820111156200089957600080fd5b80359060200191846001830284011164010000000083111715620008bc57600080fd5b91908080601f016020809104026020016040519081016040528093929190818152602001838380828437600081840152601f19601f820116905080830192505050505050509192919290803590602001906401000000008111156200092057600080fd5b8201836020820111156200093357600080fd5b803590602001918460018302840111640100000000831117156200095657600080fd5b91908080601f016020809104026020016040519081016040528093929190818152602001838380828437600081840152601f19601f820116905080830192505050505050509192919290803590602001909291908035906020019092919050505062001ce7565b604051808273ffffffffffffffffffffffffffffffffffffffff1673ffffffffffffffffffffffffffffffffffffffff16815260200191505060405180910390f35b34801562000a0c57600080fd5b5062000a5c6004803603604081101562000a2557600080fd5b81019080803573ffffffffffffffffffffffffffffffffffffffff1690602001909291908035906020019092919050505062001ef5565b604051808215151515815260200191505060405180910390f35b34801562000a8357600080fd5b5062000ad36004803603604081101562000a9c57600080fd5b81019080803573ffffffffffffffffffffffffffffffffffffffff1690602001909291908035906020019092919050505062001f9e565b604051808215151515815260200191505060405180910390f35b34801562000afa57600080fd5b5062000bba6004803603602081101562000b1357600080fd5b810190808035906020019064010000000081111562000b3157600080fd5b82018360208201111562000b4457600080fd5b8035906020019184600183028401116401000000008311171562000b6757600080fd5b91908080601f016020809104026020016040519081016040528093929190818152602001838380828437600081840152601f19601f82011690508083019250505050505050919291929050505062001fb7565b6040518082815260200191505060405180910390f35b62000c996004803603604081101562000be857600080fd5b810190808035906020019064010000000081111562000c0657600080fd5b82018360208201111562000c1957600080fd5b8035906020019184600183028401116401000000008311171562000c3c57600080fd5b91908080601f016020809104026020016040519081016040528093929190818152602001838380828437600081840152601f19601f8201169050808301925050505050505091929192908035906020019092919050505062002234565b005b34801562000ca857600080fd5b5062000d0e6004803603604081101562000cc157600080fd5b81019080803573ffffffffffffffffffffffffffffffffffffffff169060200190929190803573ffffffffffffffffffffffffffffffffffffffff169060200190929190505050620026e2565b6040518082815260200191505060405180910390f35b34801562000d3157600080fd5b5062000df16004803603602081101562000d4a57600080fd5b810190808035906020019064010000000081111562000d6857600080fd5b82018360208201111562000d7b57600080fd5b8035906020019184600183028401116401000000008311171562000d9e57600080fd5b91908080601f016020809104026020016040519081016040528093929190818152602001838380828437600081840152601f19601f82011690508083019250505050505050919291929050505062002769565b604051808273ffffffffffffffffffffffffffffffffffffffff1673ffffffffffffffffffffffffffffffffffffffff16815260200191505060405180910390f35b600062000e423384846200292c565b6001905092915050565b6000600254905090565b600062000e6584848462002b27565b62000f02843362000efc85600160008a73ffffffffffffffffffffffffffffffffffffffff1673ffffffffffffffffffffffffffffffffffffffff16815260200190815260200160002060003373ffffffffffffffffffffffffffffffffffffffff1673ffffffffffffffffffffffffffffffffffffffff1681526020019081526020016000205462002dcb90919063ffffffff16565b6200292c565b600190509392505050565b60008073ffffffffffffffffffffffffffffffffffffffff166003846040518082805190602001908083835b6020831062000f5e578051825260208201915060208101905060208303925062000f39565b6001836020036101000a038019825116818451168082178552505050505050905001915050908152602001604051809103902060009054906101000a900473ffffffffffffffffffffffffffffffffffffffff1673ffffffffffffffffffffffffffffffffffffffff1614156200103d576040517f08c379a000000000000000000000000000000000000000000000000000000000815260040180806020018281038252601d8152602001807f50726f6a6563743a204e616d6520646f6573206e6f742065786973742100000081525060200191505060405180910390fd5b6003836040518082805190602001908083835b6020831062001075578051825260208201915060208101905060208303925062001050565b6001836020036101000a038019825116818451168082178552505050505050905001915050908152602001604051809103902060009054906101000a900473ffffffffffffffffffffffffffffffffffffffff1673ffffffffffffffffffffffffffffffffffffffff166370a08231836040518263ffffffff1660e01b8152600401808273ffffffffffffffffffffffffffffffffffffffff1673ffffffffffffffffffffffffffffffffffffffff16815260200191505060206040518083038186803b1580156200114657600080fd5b505afa1580156200115b573d6000803e3d6000fd5b505050506040513d60208110156200117257600080fd5b8101908080519060200190929190505050905092915050565b60006200122a33846200122485600160003373ffffffffffffffffffffffffffffffffffffffff1673ffffffffffffffffffffffffffffffffffffffff16815260200190815260200160002060008973ffffffffffffffffffffffffffffffffffffffff1673ffffffffffffffffffffffffffffffffffffffff1681526020019081526020016000205462002e5590919063ffffffff16565b6200292c565b6001905092915050565b60008073ffffffffffffffffffffffffffffffffffffffff166003836040518082805190602001908083835b6020831062001285578051825260208201915060208101905060208303925062001260565b6001836020036101000a038019825116818451168082178552505050505050905001915050908152602001604051809103902060009054906101000a900473ffffffffffffffffffffffffffffffffffffffff1673ffffffffffffffffffffffffffffffffffffffff16141562001364576040517f08c379a000000000000000000000000000000000000000000000000000000000815260040180806020018281038252601d8152602001807f50726f6a6563743a204e616d6520646f6573206e6f742065786973742100000081525060200191505060405180910390fd5b6003826040518082805190602001908083835b602083106200139c578051825260208201915060208101905060208303925062001377565b6001836020036101000a038019825116818451168082178552505050505050905001915050908152602001604051809103902060009054906101000a900473ffffffffffffffffffffffffffffffffffffffff1673ffffffffffffffffffffffffffffffffffffffff1663893d20e86040518163ffffffff1660e01b815260040160206040518083038186803b1580156200143657600080fd5b505afa1580156200144b573d6000803e3d6000fd5b505050506040513d60208110156200146257600080fd5b81019080805190602001909291905050509050919050565b60008073ffffffffffffffffffffffffffffffffffffffff166003836040518082805190602001908083835b60208310620014cb5780518252602082019150602081019050602083039250620014a6565b6001836020036101000a038019825116818451168082178552505050505050905001915050908152602001604051809103902060009054906101000a900473ffffffffffffffffffffffffffffffffffffffff1673ffffffffffffffffffffffffffffffffffffffff161415620015aa576040517f08c379a000000000000000000000000000000000000000000000000000000000815260040180806020018281038252601d8152602001807f50726f6a6563743a204e616d6520646f6573206e6f742065786973742100000081525060200191505060405180910390fd5b6003826040518082805190602001908083835b60208310620015e25780518252602082019150602081019050602083039250620015bd565b6001836020036101000a038019825116818451168082178552505050505050905001915050908152602001604051809103902060009054906101000a900473ffffffffffffffffffffffffffffffffffffffff1673ffffffffffffffffffffffffffffffffffffffff166398d5fdca6040518163ffffffff1660e01b815260040160206040518083038186803b1580156200167c57600080fd5b505afa15801562001691573d6000803e3d6000fd5b505050506040513d6020811015620016a857600080fd5b81019080805190602001909291905050509050919050565b6060600073ffffffffffffffffffffffffffffffffffffffff166003836040518082805190602001908083835b60208310620017125780518252602082019150602081019050602083039250620016ed565b6001836020036101000a038019825116818451168082178552505050505050905001915050908152602001604051809103902060009054906101000a900473ffffffffffffffffffffffffffffffffffffffff1673ffffffffffffffffffffffffffffffffffffffff161415620017f1576040517f08c379a000000000000000000000000000000000000000000000000000000000815260040180806020018281038252601d8152602001807f50726f6a6563743a204e616d6520646f6573206e6f742065786973742100000081525060200191505060405180910390fd5b6003826040518082805190602001908083835b6020831062001829578051825260208201915060208101905060208303925062001804565b6001836020036101000a038019825116818451168082178552505050505050905001915050908152602001604051809103902060009054906101000a900473ffffffffffffffffffffffffffffffffffffffff1673ffffffffffffffffffffffffffffffffffffffff16631a0925416040518163ffffffff1660e01b815260040160006040518083038186803b158015620018c357600080fd5b505afa158015620018d8573d6000803e3d6000fd5b505050506040513d6000823e3d601f19601f8201168201806040525060208110156200190357600080fd5b8101908080516401000000008111156200191c57600080fd5b828101905060208101848111156200193357600080fd5b81518560018202830111640100000000821117156200195157600080fd5b50509291905050509050919050565b60008060008373ffffffffffffffffffffffffffffffffffffffff1673ffffffffffffffffffffffffffffffffffffffff168152602001908152602001600020549050919050565b600073ffffffffffffffffffffffffffffffffffffffff166003836040518082805190602001908083835b60208310620019f85780518252602082019150602081019050602083039250620019d3565b6001836020036101000a038019825116818451168082178552505050505050905001915050908152602001604051809103902060009054906101000a900473ffffffffffffffffffffffffffffffffffffffff1673ffffffffffffffffffffffffffffffffffffffff16141562001abb576040517f08c379a0000000000000000000000000000000000000000000000000000000008152600401808060200182810382526028815260200180620042bd6028913960400191505060405180910390fd5b8062001ac78362001fb7565b101562001b20576040517f08c379a000000000000000000000000000000000000000000000000000000000815260040180806020018281038252603a8152602001806200432d603a913960400191505060405180910390fd5b6003826040518082805190602001908083835b6020831062001b58578051825260208201915060208101905060208303925062001b33565b6001836020036101000a038019825116818451168082178552505050505050905001915050908152602001604051809103902060009054906101000a900473ffffffffffffffffffffffffffffffffffffffff1673ffffffffffffffffffffffffffffffffffffffff1663a9059cbb33836040518363ffffffff1660e01b8152600401808373ffffffffffffffffffffffffffffffffffffffff1673ffffffffffffffffffffffffffffffffffffffff16815260200182815260200192505050602060405180830381600087803b15801562001c3357600080fd5b505af115801562001c48573d6000803e3d6000fd5b505050506040513d602081101562001c5f57600080fd5b810190808051906020019092919050505062001ce3576040517f08c379a00000000000000000000000000000000000000000000000000000000081526004018080602001828103825260158152602001807f4d61726b65743a20426164207472616e7366657221000000000000000000000081525060200191505060405180910390fd5b5050565b600080338686868660405162001cfd9062002ede565b808673ffffffffffffffffffffffffffffffffffffffff1673ffffffffffffffffffffffffffffffffffffffff1681526020018060200180602001858152602001848152602001838103835287818151815260200191508051906020019080838360005b8381101562001d7e57808201518184015260208101905062001d61565b50505050905090810190601f16801562001dac5780820380516001836020036101000a031916815260200191505b50838103825286818151815260200191508051906020019080838360005b8381101562001de757808201518184015260208101905062001dca565b50505050905090810190601f16801562001e155780820380516001836020036101000a031916815260200191505b50975050505050505050604051809103906000f08015801562001e3c573d6000803e3d6000fd5b509050806003876040518082805190602001908083835b6020831062001e78578051825260208201915060208101905060208303925062001e53565b6001836020036101000a038019825116818451168082178552505050505050905001915050908152602001604051809103902060006101000a81548173ffffffffffffffffffffffffffffffffffffffff021916908373ffffffffffffffffffffffffffffffffffffffff16021790555080915050949350505050565b600062001f94338462001f8e85600160003373ffffffffffffffffffffffffffffffffffffffff1673ffffffffffffffffffffffffffffffffffffffff16815260200190815260200160002060008973ffffffffffffffffffffffffffffffffffffffff1673ffffffffffffffffffffffffffffffffffffffff1681526020019081526020016000205462002dcb90919063ffffffff16565b6200292c565b6001905092915050565b600062001fad33848462002b27565b6001905092915050565b60008073ffffffffffffffffffffffffffffffffffffffff166003836040518082805190602001908083835b6020831062002008578051825260208201915060208101905060208303925062001fe3565b6001836020036101000a038019825116818451168082178552505050505050905001915050908152602001604051809103902060009054906101000a900473ffffffffffffffffffffffffffffffffffffffff1673ffffffffffffffffffffffffffffffffffffffff161415620020e7576040517f08c379a000000000000000000000000000000000000000000000000000000000815260040180806020018281038252601d8152602001807f50726f6a6563743a204e616d6520646f6573206e6f742065786973742100000081525060200191505060405180910390fd5b6003826040518082805190602001908083835b602083106200211f5780518252602082019150602081019050602083039250620020fa565b6001836020036101000a038019825116818451168082178552505050505050905001915050908152602001604051809103902060009054906101000a900473ffffffffffffffffffffffffffffffffffffffff1673ffffffffffffffffffffffffffffffffffffffff166370a08231306040518263ffffffff1660e01b8152600401808273ffffffffffffffffffffffffffffffffffffffff1673ffffffffffffffffffffffffffffffffffffffff16815260200191505060206040518083038186803b158015620021f057600080fd5b505afa15801562002205573d6000803e3d6000fd5b505050506040513d60208110156200221c57600080fd5b81019080805190602001909291905050509050919050565b600073ffffffffffffffffffffffffffffffffffffffff166003836040518082805190602001908083835b602083106200228457805182526020820191506020810190506020830392506200225f565b6001836020036101000a038019825116818451168082178552505050505050905001915050908152602001604051809103902060009054906101000a900473ffffffffffffffffffffffffffffffffffffffff1673ffffffffffffffffffffffffffffffffffffffff16141562002347576040517f08c379a0000000000000000000000000000000000000000000000000000000008152600401808060200182810382526029815260200180620042716029913960400191505060405180910390fd5b806003836040518082805190602001908083835b602083106200238057805182526020820191506020810190506020830392506200235b565b6001836020036101000a038019825116818451168082178552505050505050905001915050908152602001604051809103902060009054906101000a900473ffffffffffffffffffffffffffffffffffffffff1673ffffffffffffffffffffffffffffffffffffffff166370a08231336040518263ffffffff1660e01b8152600401808273ffffffffffffffffffffffffffffffffffffffff1673ffffffffffffffffffffffffffffffffffffffff16815260200191505060206040518083038186803b1580156200245157600080fd5b505afa15801562002466573d6000803e3d6000fd5b505050506040513d60208110156200247d57600080fd5b81019080805190602001909291905050501015620024e7576040517f08c379a0000000000000000000000000000000000000000000000000000000008152600401808060200182810382526026815260200180620043076026913960400191505060405180910390fd5b6003826040518082805190602001908083835b602083106200251f5780518252602082019150602081019050602083039250620024fa565b6001836020036101000a038019825116818451168082178552505050505050905001915050908152602001604051809103902060009054906101000a900473ffffffffffffffffffffffffffffffffffffffff1673ffffffffffffffffffffffffffffffffffffffff166323b872dd3330846040518463ffffffff1660e01b8152600401808473ffffffffffffffffffffffffffffffffffffffff1673ffffffffffffffffffffffffffffffffffffffff1681526020018373ffffffffffffffffffffffffffffffffffffffff1673ffffffffffffffffffffffffffffffffffffffff1681526020018281526020019350505050602060405180830381600087803b1580156200262e57600080fd5b505af115801562002643573d6000803e3d6000fd5b505050506040513d60208110156200265a57600080fd5b8101908080519060200190929190505050620026de576040517f08c379a000000000000000000000000000000000000000000000000000000000815260040180806020018281038252601f8152602001807f4d61726b65743a73656c6c53686172657320426164207472616e73666572210081525060200191505060405180910390fd5b5050565b6000600160008473ffffffffffffffffffffffffffffffffffffffff1673ffffffffffffffffffffffffffffffffffffffff16815260200190815260200160002060008373ffffffffffffffffffffffffffffffffffffffff1673ffffffffffffffffffffffffffffffffffffffff16815260200190815260200160002054905092915050565b60008073ffffffffffffffffffffffffffffffffffffffff166003836040518082805190602001908083835b60208310620027ba578051825260208201915060208101905060208303925062002795565b6001836020036101000a038019825116818451168082178552505050505050905001915050908152602001604051809103902060009054906101000a900473ffffffffffffffffffffffffffffffffffffffff1673ffffffffffffffffffffffffffffffffffffffff16141562002899576040517f08c379a000000000000000000000000000000000000000000000000000000000815260040180806020018281038252601d8152602001807f50726f6a6563743a204e616d6520646f6573206e6f742065786973742100000081525060200191505060405180910390fd5b6003826040518082805190602001908083835b60208310620028d15780518252602082019150602081019050602083039250620028ac565b6001836020036101000a038019825116818451168082178552505050505050905001915050908152602001604051809103902060009054906101000a900473ffffffffffffffffffffffffffffffffffffffff169050919050565b600073ffffffffffffffffffffffffffffffffffffffff168373ffffffffffffffffffffffffffffffffffffffff161415620029b4576040517f08c379a00000000000000000000000000000000000000000000000000000000081526004018080602001828103825260248152602001806200438c6024913960400191505060405180910390fd5b600073ffffffffffffffffffffffffffffffffffffffff168273ffffffffffffffffffffffffffffffffffffffff16141562002a3c576040517f08c379a0000000000000000000000000000000000000000000000000000000008152600401808060200182810382526022815260200180620042e56022913960400191505060405180910390fd5b80600160008573ffffffffffffffffffffffffffffffffffffffff1673ffffffffffffffffffffffffffffffffffffffff16815260200190815260200160002060008473ffffffffffffffffffffffffffffffffffffffff1673ffffffffffffffffffffffffffffffffffffffff168152602001908152602001600020819055508173ffffffffffffffffffffffffffffffffffffffff168373ffffffffffffffffffffffffffffffffffffffff167f8c5be1e5ebec7d5bd14f71427d1e84f3dd0314c0f7b2291e5b200ac8c7c3b925836040518082815260200191505060405180910390a3505050565b600073ffffffffffffffffffffffffffffffffffffffff168373ffffffffffffffffffffffffffffffffffffffff16141562002baf576040517f08c379a0000000000000000000000000000000000000000000000000000000008152600401808060200182810382526025815260200180620043676025913960400191505060405180910390fd5b600073ffffffffffffffffffffffffffffffffffffffff168273ffffffffffffffffffffffffffffffffffffffff16141562002c37576040517f08c379a00000000000000000000000000000000000000000000000000000000081526004018080602001828103825260238152602001806200429a6023913960400191505060405180910390fd5b62002c8a816000808673ffffffffffffffffffffffffffffffffffffffff1673ffffffffffffffffffffffffffffffffffffffff1681526020019081526020016000205462002dcb90919063ffffffff16565b6000808573ffffffffffffffffffffffffffffffffffffffff1673ffffffffffffffffffffffffffffffffffffffff1681526020019081526020016000208190555062002d1f816000808573ffffffffffffffffffffffffffffffffffffffff1673ffffffffffffffffffffffffffffffffffffffff1681526020019081526020016000205462002e5590919063ffffffff16565b6000808473ffffffffffffffffffffffffffffffffffffffff1673ffffffffffffffffffffffffffffffffffffffff168152602001908152602001600020819055508173ffffffffffffffffffffffffffffffffffffffff168373ffffffffffffffffffffffffffffffffffffffff167fddf252ad1be2c89b69c2b068fc378daa952ba7f163c4a11628f55a4df523b3ef836040518082815260200191505060405180910390a3505050565b60008282111562002e44576040517f08c379a000000000000000000000000000000000000000000000000000000000815260040180806020018281038252601e8152602001807f536166654d6174683a207375627472616374696f6e206f766572666c6f77000081525060200191505060405180910390fd5b600082840390508091505092915050565b60008082840190508381101562002ed4576040517f08c379a000000000000000000000000000000000000000000000000000000000815260040180806020018281038252601b8152602001807f536166654d6174683a206164646974696f6e206f766572666c6f77000000000081525060200191505060405180910390fd5b8091505092915050565b6113848062002eed8339019056fe60806040523480156200001157600080fd5b506040516200138438038062001384833981018060405260a08110156200003757600080fd5b810190808051906020019092919080516401000000008111156200005a57600080fd5b828101905060208101848111156200007157600080fd5b81518560018202830111640100000000821117156200008f57600080fd5b50509291906020018051640100000000811115620000ac57600080fd5b82810190506020810184811115620000c357600080fd5b8151856001820283011164010000000082111715620000e157600080fd5b5050929190602001805190602001909291908051906020019092919050505084600360006101000a81548173ffffffffffffffffffffffffffffffffffffffff021916908373ffffffffffffffffffffffffffffffffffffffff160217905550836004908051906020019062000159929190620003ea565b50826005908051906020019062000172929190620003ea565b50816006819055506200018c33826200019760201b60201c565b505050505062000499565b600073ffffffffffffffffffffffffffffffffffffffff168273ffffffffffffffffffffffffffffffffffffffff1614156200023b576040517f08c379a000000000000000000000000000000000000000000000000000000000815260040180806020018281038252601f8152602001807f45524332303a206d696e7420746f20746865207a65726f20616464726573730081525060200191505060405180910390fd5b62000257816002546200036160201b62000d991790919060201c565b600281905550620002b5816000808573ffffffffffffffffffffffffffffffffffffffff1673ffffffffffffffffffffffffffffffffffffffff168152602001908152602001600020546200036160201b62000d991790919060201c565b6000808473ffffffffffffffffffffffffffffffffffffffff1673ffffffffffffffffffffffffffffffffffffffff168152602001908152602001600020819055508173ffffffffffffffffffffffffffffffffffffffff16600073ffffffffffffffffffffffffffffffffffffffff167fddf252ad1be2c89b69c2b068fc378daa952ba7f163c4a11628f55a4df523b3ef836040518082815260200191505060405180910390a35050565b600080828401905083811015620003e0576040517f08c379a000000000000000000000000000000000000000000000000000000000815260040180806020018281038252601b8152602001807f536166654d6174683a206164646974696f6e206f766572666c6f77000000000081525060200191505060405180910390fd5b8091505092915050565b828054600181600116156101000203166002900490600052602060002090601f016020900481019282601f106200042d57805160ff19168380011785556200045e565b828001600101855582156200045e579182015b828111156200045d57825182559160200191906001019062000440565b5b5090506200046d919062000471565b5090565b6200049691905b808211156200049257600081600090555060010162000478565b5090565b90565b610edb80620004a96000396000f3fe608060405234801561001057600080fd5b50600436106100a95760003560e01c806370a082311161007157806370a08231146102a1578063893d20e8146102f957806398d5fdca14610343578063a457c2d714610361578063a9059cbb146103c7578063dd62ed3e1461042d576100a9565b8063095ea7b3146100ae57806318160ddd146101145780631a0925411461013257806323b872dd146101b5578063395093511461023b575b600080fd5b6100fa600480360360408110156100c457600080fd5b81019080803573ffffffffffffffffffffffffffffffffffffffff169060200190929190803590602001909291905050506104a5565b604051808215151515815260200191505060405180910390f35b61011c6104bc565b6040518082815260200191505060405180910390f35b61013a6104c6565b6040518080602001828103825283818151815260200191508051906020019080838360005b8381101561017a57808201518184015260208101905061015f565b50505050905090810190601f1680156101a75780820380516001836020036101000a031916815260200191505b509250505060405180910390f35b610221600480360360608110156101cb57600080fd5b81019080803573ffffffffffffffffffffffffffffffffffffffff169060200190929190803573ffffffffffffffffffffffffffffffffffffffff16906020019092919080359060200190929190505050610568565b604051808215151515815260200191505060405180910390f35b6102876004803603604081101561025157600080fd5b81019080803573ffffffffffffffffffffffffffffffffffffffff16906020019092919080359060200190929190505050610619565b604051808215151515815260200191505060405180910390f35b6102e3600480360360208110156102b757600080fd5b81019080803573ffffffffffffffffffffffffffffffffffffffff1690602001909291905050506106be565b6040518082815260200191505060405180910390f35b610301610706565b604051808273ffffffffffffffffffffffffffffffffffffffff1673ffffffffffffffffffffffffffffffffffffffff16815260200191505060405180910390f35b61034b610730565b6040518082815260200191505060405180910390f35b6103ad6004803603604081101561037757600080fd5b81019080803573ffffffffffffffffffffffffffffffffffffffff1690602001909291908035906020019092919050505061073a565b604051808215151515815260200191505060405180910390f35b610413600480360360408110156103dd57600080fd5b81019080803573ffffffffffffffffffffffffffffffffffffffff169060200190929190803590602001909291905050506107df565b604051808215151515815260200191505060405180910390f35b61048f6004803603604081101561044357600080fd5b81019080803573ffffffffffffffffffffffffffffffffffffffff169060200190929190803573ffffffffffffffffffffffffffffffffffffffff1690602001909291905050506107f6565b6040518082815260200191505060405180910390f35b60006104b233848461087d565b6001905092915050565b6000600254905090565b606060058054600181600116156101000203166002900480601f01602080910402602001604051908101604052809291908181526020018280546001816001161561010002031660029004801561055e5780601f106105335761010080835404028352916020019161055e565b820191906000526020600020905b81548152906001019060200180831161054157829003601f168201915b5050505050905090565b6000610575848484610a74565b61060e843361060985600160008a73ffffffffffffffffffffffffffffffffffffffff1673ffffffffffffffffffffffffffffffffffffffff16815260200190815260200160002060003373ffffffffffffffffffffffffffffffffffffffff1673ffffffffffffffffffffffffffffffffffffffff16815260200190815260200160002054610d1090919063ffffffff16565b61087d565b600190509392505050565b60006106b433846106af85600160003373ffffffffffffffffffffffffffffffffffffffff1673ffffffffffffffffffffffffffffffffffffffff16815260200190815260200160002060008973ffffffffffffffffffffffffffffffffffffffff1673ffffffffffffffffffffffffffffffffffffffff16815260200190815260200160002054610d9990919063ffffffff16565b61087d565b6001905092915050565b60008060008373ffffffffffffffffffffffffffffffffffffffff1673ffffffffffffffffffffffffffffffffffffffff168152602001908152602001600020549050919050565b6000600360009054906101000a900473ffffffffffffffffffffffffffffffffffffffff16905090565b6000600654905090565b60006107d533846107d085600160003373ffffffffffffffffffffffffffffffffffffffff1673ffffffffffffffffffffffffffffffffffffffff16815260200190815260200160002060008973ffffffffffffffffffffffffffffffffffffffff1673ffffffffffffffffffffffffffffffffffffffff16815260200190815260200160002054610d1090919063ffffffff16565b61087d565b6001905092915050565b60006107ec338484610a74565b6001905092915050565b6000600160008473ffffffffffffffffffffffffffffffffffffffff1673ffffffffffffffffffffffffffffffffffffffff16815260200190815260200160002060008373ffffffffffffffffffffffffffffffffffffffff1673ffffffffffffffffffffffffffffffffffffffff16815260200190815260200160002054905092915050565b600073ffffffffffffffffffffffffffffffffffffffff168373ffffffffffffffffffffffffffffffffffffffff161415610903576040517f08c379a0000000000000000000000000000000000000000000000000000000008152600401808060200182810382526024815260200180610e8c6024913960400191505060405180910390fd5b600073ffffffffffffffffffffffffffffffffffffffff168273ffffffffffffffffffffffffffffffffffffffff161415610989576040517f08c379a0000000000000000000000000000000000000000000000000000000008152600401808060200182810382526022815260200180610e456022913960400191505060405180910390fd5b80600160008573ffffffffffffffffffffffffffffffffffffffff1673ffffffffffffffffffffffffffffffffffffffff16815260200190815260200160002060008473ffffffffffffffffffffffffffffffffffffffff1673ffffffffffffffffffffffffffffffffffffffff168152602001908152602001600020819055508173ffffffffffffffffffffffffffffffffffffffff168373ffffffffffffffffffffffffffffffffffffffff167f8c5be1e5ebec7d5bd14f71427d1e84f3dd0314c0f7b2291e5b200ac8c7c3b925836040518082815260200191505060405180910390a3505050565b600073ffffffffffffffffffffffffffffffffffffffff168373ffffffffffffffffffffffffffffffffffffffff161415610afa576040517f08c379a0000000000000000000000000000000000000000000000000000000008152600401808060200182810382526025815260200180610e676025913960400191505060405180910390fd5b600073ffffffffffffffffffffffffffffffffffffffff168273ffffffffffffffffffffffffffffffffffffffff161415610b80576040517f08c379a0000000000000000000000000000000000000000000000000000000008152600401808060200182810382526023815260200180610e226023913960400191505060405180910390fd5b610bd1816000808673ffffffffffffffffffffffffffffffffffffffff1673ffffffffffffffffffffffffffffffffffffffff16815260200190815260200160002054610d1090919063ffffffff16565b6000808573ffffffffffffffffffffffffffffffffffffffff1673ffffffffffffffffffffffffffffffffffffffff16815260200190815260200160002081905550610c64816000808573ffffffffffffffffffffffffffffffffffffffff1673ffffffffffffffffffffffffffffffffffffffff16815260200190815260200160002054610d9990919063ffffffff16565b6000808473ffffffffffffffffffffffffffffffffffffffff1673ffffffffffffffffffffffffffffffffffffffff168152602001908152602001600020819055508173ffffffffffffffffffffffffffffffffffffffff168373ffffffffffffffffffffffffffffffffffffffff167fddf252ad1be2c89b69c2b068fc378daa952ba7f163c4a11628f55a4df523b3ef836040518082815260200191505060405180910390a3505050565b600082821115610d88576040517f08c379a000000000000000000000000000000000000000000000000000000000815260040180806020018281038252601e8152602001807f536166654d6174683a207375627472616374696f6e206f766572666c6f77000081525060200191505060405180910390fd5b600082840390508091505092915050565b600080828401905083811015610e17576040517f08c379a000000000000000000000000000000000000000000000000000000000815260040180806020018281038252601b8152602001807f536166654d6174683a206164646974696f6e206f766572666c6f77000000000081525060200191505060405180910390fd5b809150509291505056fe45524332303a207472616e7366657220746f20746865207a65726f206164647265737345524332303a20617070726f766520746f20746865207a65726f206164647265737345524332303a207472616e736665722066726f6d20746865207a65726f206164647265737345524332303a20617070726f76652066726f6d20746865207a65726f2061646472657373a165627a7a7230582029a9b7b0663e94446c64c36ec902b44b26893a23ea5119efbf9c27d8c2de201300294d61726b65743a2073656c6c536861726573202d204e616d6520646f6573206e6f742065786973742145524332303a207472616e7366657220746f20746865207a65726f20616464726573734d61726b65743a20627579536861726573202d204e616d6520646f6573206e6f742065786973742145524332303a20617070726f766520746f20746865207a65726f20616464726573734d61726b65743a2073656c6c536861726573202d20496e636f727265637420616d6f756e74214d61726b65743a2062757950726f6a656374536861726573202d20546f206d616e792073686172657320796f752077616e7420746f206275792145524332303a207472616e736665722066726f6d20746865207a65726f206164647265737345524332303a20617070726f76652066726f6d20746865207a65726f2061646472657373a165627a7a723058203987a6a70d7537b4a07b3d0a9cf2126255cd4c8da8f304cdeb2fb4dfbcd546ea0029",
  "source": "pragma solidity ^0.5.0;\n\nimport './Project.sol';\nimport \"../node_modules/openzeppelin-solidity/contracts/token/ERC20/ERC20.sol\";\n\ncontract Market is ERC20{\n\n\tmapping(string => Project) Projects;\n\n\tfunction createProject (\n\t\tstring memory _name,\n\t\tstring memory _description,\n\t\tuint256 _price,\n\t\tuint256 _shares\n\t)\n\tpublic returns(Project)\n\t{\n\t\tProject newProject = new Project(msg.sender, _name, _description, _price, _shares);\n  \tProjects[_name] = newProject;\n\t\treturn newProject;\n\t}\n\n\tfunction getProjectAddress(string memory name) public view returns(address) {\n\t\trequire(address(Projects[name]) != address(0), \"Project: Name does not exist!\");\n\t\treturn address(Projects[name]);\n\t}\n\n\tfunction getProjectDescription(string memory name) public view returns(string memory) {\n\t\trequire(address(Projects[name]) != address(0), \"Project: Name does not exist!\");\n\t\treturn Projects[name].getDescription();\n\t}\n\n\tfunction getProjectOwner(string memory name) public view returns(address) {\n\t\trequire(address(Projects[name]) != address(0), \"Project: Name does not exist!\");\n\t\treturn Projects[name].getOwner();\n\t}\n\n\tfunction getSharesCount(string memory name) public view returns(uint256) {\n\t\trequire(address(Projects[name]) != address(0), \"Project: Name does not exist!\");\n\t\treturn Projects[name].balanceOf(address(this));\n\t}\n\n\tfunction getSharesClientCount(string memory name, address client) public view returns(uint256) {\n\t\trequire(address(Projects[name]) != address(0), \"Project: Name does not exist!\");\n\t\treturn Projects[name].balanceOf(client);\n\t}\n\n\tfunction getPrice(string memory name) public view returns(uint256) {\n\t\trequire(address(Projects[name]) != address(0), \"Project: Name does not exist!\");\n\t\treturn Projects[name].getPrice();\n\t}\n\n\tfunction buyShares(string memory name, uint256 _shares ) public payable{\n\t\trequire(address(Projects[name]) != address(0), \"Market: buyShares - Name does not exist!\");\n\t\trequire(getSharesCount(name) >= _shares, \"Market: buyProjectShares - To many shares you want to buy!\");\n\t\trequire(Projects[name].transfer(msg.sender, _shares), \"Market: Bad transfer!\");\n\t}\n\n\tfunction sellShares(string memory name, uint256 _shares ) public payable{\n\t\trequire(address(Projects[name]) != address(0), \"Market: sellShares - Name does not exist!\");\n\t\trequire(Projects[name].balanceOf(msg.sender) >= _shares, \"Market: sellShares - Incorrect amount!\");\n\t\trequire(Projects[name].transferFrom(msg.sender, address(this), _shares), \"Market:sellShares Bad transfer!\");\n\t}\n}",
  "sourcePath": "C:/Work/Truffle/SmartContracts/contracts/Market.sol",
  "compiler": {
    "name": "solc",
    "version": "0.5.8+commit.23d335f2.Emscripten.clang"
  },
  "schemaVersion": "3.0.16",
  "updatedAt": "2019-10-28T15:52:58.259Z",
  "devdoc": {
    "methods": {
      "allowance(address,address)": {
        "details": "See `IERC20.allowance`."
      },
      "approve(address,uint256)": {
        "details": "See `IERC20.approve`.     * Requirements:     * - `spender` cannot be the zero address."
      },
      "balanceOf(address)": {
        "details": "See `IERC20.balanceOf`."
      },
      "decreaseAllowance(address,uint256)": {
        "details": "Atomically decreases the allowance granted to `spender` by the caller.     * This is an alternative to `approve` that can be used as a mitigation for problems described in `IERC20.approve`.     * Emits an `Approval` event indicating the updated allowance.     * Requirements:     * - `spender` cannot be the zero address. - `spender` must have allowance for the caller of at least `subtractedValue`."
      },
      "increaseAllowance(address,uint256)": {
        "details": "Atomically increases the allowance granted to `spender` by the caller.     * This is an alternative to `approve` that can be used as a mitigation for problems described in `IERC20.approve`.     * Emits an `Approval` event indicating the updated allowance.     * Requirements:     * - `spender` cannot be the zero address."
      },
      "totalSupply()": {
        "details": "See `IERC20.totalSupply`."
      },
      "transfer(address,uint256)": {
        "details": "See `IERC20.transfer`.     * Requirements:     * - `recipient` cannot be the zero address. - the caller must have a balance of at least `amount`."
      },
      "transferFrom(address,address,uint256)": {
        "details": "See `IERC20.transferFrom`.     * Emits an `Approval` event indicating the updated allowance. This is not required by the EIP. See the note at the beginning of `ERC20`;     * Requirements: - `sender` and `recipient` cannot be the zero address. - `sender` must have a balance of at least `value`. - the caller must have allowance for `sender`'s tokens of at least `amount`."
      }
    }
  },
  "userdoc": {
    "methods": {}
  }
}