{
  "contractName": "Market",
  "abi": [
    {
      "constant": false,
      "inputs": [
        {
          "name": "spender",
          "type": "address"
        },
        {
          "name": "value",
          "type": "uint256"
        }
      ],
      "name": "approve",
      "outputs": [
        {
          "name": "",
          "type": "bool"
        }
      ],
      "payable": false,
      "stateMutability": "nonpayable",
      "type": "function"
    },
    {
      "constant": true,
      "inputs": [],
      "name": "totalSupply",
      "outputs": [
        {
          "name": "",
          "type": "uint256"
        }
      ],
      "payable": false,
      "stateMutability": "view",
      "type": "function"
    },
    {
      "constant": false,
      "inputs": [
        {
          "name": "sender",
          "type": "address"
        },
        {
          "name": "recipient",
          "type": "address"
        },
        {
          "name": "amount",
          "type": "uint256"
        }
      ],
      "name": "transferFrom",
      "outputs": [
        {
          "name": "",
          "type": "bool"
        }
      ],
      "payable": false,
      "stateMutability": "nonpayable",
      "type": "function"
    },
    {
      "constant": false,
      "inputs": [
        {
          "name": "spender",
          "type": "address"
        },
        {
          "name": "addedValue",
          "type": "uint256"
        }
      ],
      "name": "increaseAllowance",
      "outputs": [
        {
          "name": "",
          "type": "bool"
        }
      ],
      "payable": false,
      "stateMutability": "nonpayable",
      "type": "function"
    },
    {
      "constant": true,
      "inputs": [
        {
          "name": "account",
          "type": "address"
        }
      ],
      "name": "balanceOf",
      "outputs": [
        {
          "name": "",
          "type": "uint256"
        }
      ],
      "payable": false,
      "stateMutability": "view",
      "type": "function"
    },
    {
      "constant": true,
      "inputs": [
        {
          "name": "",
          "type": "string"
        }
      ],
      "name": "Projects",
      "outputs": [
        {
          "name": "",
          "type": "address"
        }
      ],
      "payable": false,
      "stateMutability": "view",
      "type": "function"
    },
    {
      "constant": false,
      "inputs": [
        {
          "name": "spender",
          "type": "address"
        },
        {
          "name": "subtractedValue",
          "type": "uint256"
        }
      ],
      "name": "decreaseAllowance",
      "outputs": [
        {
          "name": "",
          "type": "bool"
        }
      ],
      "payable": false,
      "stateMutability": "nonpayable",
      "type": "function"
    },
    {
      "constant": false,
      "inputs": [
        {
          "name": "recipient",
          "type": "address"
        },
        {
          "name": "amount",
          "type": "uint256"
        }
      ],
      "name": "transfer",
      "outputs": [
        {
          "name": "",
          "type": "bool"
        }
      ],
      "payable": false,
      "stateMutability": "nonpayable",
      "type": "function"
    },
    {
      "constant": true,
      "inputs": [
        {
          "name": "owner",
          "type": "address"
        },
        {
          "name": "spender",
          "type": "address"
        }
      ],
      "name": "allowance",
      "outputs": [
        {
          "name": "",
          "type": "uint256"
        }
      ],
      "payable": false,
      "stateMutability": "view",
      "type": "function"
    },
    {
      "anonymous": false,
      "inputs": [
        {
          "indexed": false,
          "name": "zombieId",
          "type": "uint256"
        },
        {
          "indexed": false,
          "name": "name",
          "type": "string"
        },
        {
          "indexed": false,
          "name": "dna",
          "type": "uint256"
        }
      ],
      "name": "NewProject",
      "type": "event"
    },
    {
      "anonymous": false,
      "inputs": [
        {
          "indexed": true,
          "name": "from",
          "type": "address"
        },
        {
          "indexed": true,
          "name": "to",
          "type": "address"
        },
        {
          "indexed": false,
          "name": "value",
          "type": "uint256"
        }
      ],
      "name": "Transfer",
      "type": "event"
    },
    {
      "anonymous": false,
      "inputs": [
        {
          "indexed": true,
          "name": "owner",
          "type": "address"
        },
        {
          "indexed": true,
          "name": "spender",
          "type": "address"
        },
        {
          "indexed": false,
          "name": "value",
          "type": "uint256"
        }
      ],
      "name": "Approval",
      "type": "event"
    },
    {
      "constant": false,
      "inputs": [
        {
          "name": "_name",
          "type": "string"
        },
        {
          "name": "_description",
          "type": "string"
        },
        {
          "name": "_price",
          "type": "uint256"
        },
        {
          "name": "_shares",
          "type": "uint256"
        }
      ],
      "name": "createProject",
      "outputs": [],
      "payable": false,
      "stateMutability": "nonpayable",
      "type": "function"
    },
    {
      "constant": true,
      "inputs": [
        {
          "name": "name",
          "type": "string"
        }
      ],
      "name": "getSharesCount",
      "outputs": [
        {
          "name": "",
          "type": "uint256"
        }
      ],
      "payable": false,
      "stateMutability": "view",
      "type": "function"
    },
    {
      "constant": true,
      "inputs": [
        {
          "name": "name",
          "type": "string"
        },
        {
          "name": "client",
          "type": "address"
        }
      ],
      "name": "getClientSharesCount",
      "outputs": [
        {
          "name": "",
          "type": "uint256"
        }
      ],
      "payable": false,
      "stateMutability": "view",
      "type": "function"
    },
    {
      "constant": true,
      "inputs": [
        {
          "name": "name",
          "type": "string"
        }
      ],
      "name": "getPrice",
      "outputs": [
        {
          "name": "",
          "type": "uint256"
        }
      ],
      "payable": false,
      "stateMutability": "view",
      "type": "function"
    },
    {
      "constant": false,
      "inputs": [
        {
          "name": "name",
          "type": "string"
        },
        {
          "name": "_shares",
          "type": "uint256"
        }
      ],
      "name": "buyShares",
      "outputs": [],
      "payable": true,
      "stateMutability": "payable",
      "type": "function"
    },
    {
      "constant": false,
      "inputs": [
        {
          "name": "name",
          "type": "string"
        },
        {
          "name": "_shares",
          "type": "uint256"
        }
      ],
      "name": "sellShares",
      "outputs": [],
      "payable": true,
      "stateMutability": "payable",
      "type": "function"
    }
  ],
  "bytecode": "0x608060405234801561001057600080fd5b50613bd5806100206000396000f3fe608060405260043610620000fe5760003560e01c80638ff9ba941162000097578063a9059cbb1162000061578063a9059cbb14620008d3578063c7470219146200094a578063caff564c1462000a2d578063dd62ed3e1462000af857620000fe565b80638ff9ba9414620004cd578063905a864814620005d057806394ba970914620006df578063a457c2d7146200085c57620000fe565b80633950935111620000d957806339509351146200023f578063524f388914620002b657806370a08231146200039957806387b1dc3c146200040257620000fe565b8063095ea7b3146200010357806318160ddd146200017a57806323b872dd14620001a8575b600080fd5b3480156200011057600080fd5b5062000160600480360360408110156200012957600080fd5b81019080803573ffffffffffffffffffffffffffffffffffffffff1690602001909291908035906020019092919050505062000b81565b604051808215151515815260200191505060405180910390f35b3480156200018757600080fd5b506200019262000b9a565b6040518082815260200191505060405180910390f35b348015620001b557600080fd5b506200022560048036036060811015620001ce57600080fd5b81019080803573ffffffffffffffffffffffffffffffffffffffff169060200190929190803573ffffffffffffffffffffffffffffffffffffffff1690602001909291908035906020019092919050505062000ba4565b604051808215151515815260200191505060405180910390f35b3480156200024c57600080fd5b506200029c600480360360408110156200026557600080fd5b81019080803573ffffffffffffffffffffffffffffffffffffffff1690602001909291908035906020019092919050505062000c5b565b604051808215151515815260200191505060405180910390f35b348015620002c357600080fd5b506200038360048036036020811015620002dc57600080fd5b8101908080359060200190640100000000811115620002fa57600080fd5b8201836020820111156200030d57600080fd5b803590602001918460018302840111640100000000831117156200033057600080fd5b91908080601f016020809104026020016040519081016040528093929190818152602001838380828437600081840152601f19601f82011690508083019250505050505050919291929050505062000d04565b6040518082815260200191505060405180910390f35b348015620003a657600080fd5b50620003ec60048036036020811015620003bf57600080fd5b81019080803573ffffffffffffffffffffffffffffffffffffffff16906020019092919050505062000e1c565b6040518082815260200191505060405180910390f35b620004cb600480360360408110156200041a57600080fd5b81019080803590602001906401000000008111156200043857600080fd5b8201836020820111156200044b57600080fd5b803590602001918460018302840111640100000000831117156200046e57600080fd5b91908080601f016020809104026020016040519081016040528093929190818152602001838380828437600081840152601f19601f8201169050808301925050505050505091929192908035906020019092919050505062000e64565b005b348015620004da57600080fd5b50620005ba60048036036040811015620004f357600080fd5b81019080803590602001906401000000008111156200051157600080fd5b8201836020820111156200052457600080fd5b803590602001918460018302840111640100000000831117156200054757600080fd5b91908080601f016020809104026020016040519081016040528093929190818152602001838380828437600081840152601f19601f820116905080830192505050505050509192919290803573ffffffffffffffffffffffffffffffffffffffff16906020019092919050505062001212565b6040518082815260200191505060405180910390f35b348015620005dd57600080fd5b506200069d60048036036020811015620005f657600080fd5b81019080803590602001906401000000008111156200061457600080fd5b8201836020820111156200062757600080fd5b803590602001918460018302840111640100000000831117156200064a57600080fd5b91908080601f016020809104026020016040519081016040528093929190818152602001838380828437600081840152601f19601f82011690508083019250505050505050919291929050505062001362565b604051808273ffffffffffffffffffffffffffffffffffffffff1673ffffffffffffffffffffffffffffffffffffffff16815260200191505060405180910390f35b348015620006ec57600080fd5b506200085a600480360360808110156200070557600080fd5b81019080803590602001906401000000008111156200072357600080fd5b8201836020820111156200073657600080fd5b803590602001918460018302840111640100000000831117156200075957600080fd5b91908080601f016020809104026020016040519081016040528093929190818152602001838380828437600081840152601f19601f82011690508083019250505050505050919291929080359060200190640100000000811115620007bd57600080fd5b820183602082011115620007d057600080fd5b80359060200191846001830284011164010000000083111715620007f357600080fd5b91908080601f016020809104026020016040519081016040528093929190818152602001838380828437600081840152601f19601f8201169050808301925050505050505091929192908035906020019092919080359060200190929190505050620013ab565b005b3480156200086957600080fd5b50620008b9600480360360408110156200088257600080fd5b81019080803573ffffffffffffffffffffffffffffffffffffffff16906020019092919080359060200190929190505050620015b3565b604051808215151515815260200191505060405180910390f35b348015620008e057600080fd5b506200093060048036036040811015620008f957600080fd5b81019080803573ffffffffffffffffffffffffffffffffffffffff169060200190929190803590602001909291905050506200165c565b604051808215151515815260200191505060405180910390f35b3480156200095757600080fd5b5062000a17600480360360208110156200097057600080fd5b81019080803590602001906401000000008111156200098e57600080fd5b820183602082011115620009a157600080fd5b80359060200191846001830284011164010000000083111715620009c457600080fd5b91908080601f016020809104026020016040519081016040528093929190818152602001838380828437600081840152601f19601f82011690508083019250505050505050919291929050505062001675565b6040518082815260200191505060405180910390f35b62000af66004803603604081101562000a4557600080fd5b810190808035906020019064010000000081111562000a6357600080fd5b82018360208201111562000a7657600080fd5b8035906020019184600183028401116401000000008311171562000a9957600080fd5b91908080601f016020809104026020016040519081016040528093929190818152602001838380828437600081840152601f19601f82011690508083019250505050505050919291929080359060200190929190505050620017c4565b005b34801562000b0557600080fd5b5062000b6b6004803603604081101562000b1e57600080fd5b81019080803573ffffffffffffffffffffffffffffffffffffffff169060200190929190803573ffffffffffffffffffffffffffffffffffffffff16906020019092919050505062001c70565b6040518082815260200191505060405180910390f35b600062000b9033848462001cf7565b6001905092915050565b6000600254905090565b600062000bb384848462001ef2565b62000c50843362000c4a85600160008a73ffffffffffffffffffffffffffffffffffffffff1673ffffffffffffffffffffffffffffffffffffffff16815260200190815260200160002060003373ffffffffffffffffffffffffffffffffffffffff1673ffffffffffffffffffffffffffffffffffffffff168152602001908152602001600020546200219690919063ffffffff16565b62001cf7565b600190509392505050565b600062000cfa338462000cf485600160003373ffffffffffffffffffffffffffffffffffffffff1673ffffffffffffffffffffffffffffffffffffffff16815260200190815260200160002060008973ffffffffffffffffffffffffffffffffffffffff1673ffffffffffffffffffffffffffffffffffffffff168152602001908152602001600020546200222090919063ffffffff16565b62001cf7565b6001905092915050565b60006003826040518082805190602001908083835b6020831062000d3e578051825260208201915060208101905060208303925062000d19565b6001836020036101000a038019825116818451168082178552505050505050905001915050908152602001604051809103902060009054906101000a900473ffffffffffffffffffffffffffffffffffffffff1673ffffffffffffffffffffffffffffffffffffffff166398d5fdca6040518163ffffffff1660e01b815260040160206040518083038186803b15801562000dd857600080fd5b505afa15801562000ded573d6000803e3d6000fd5b505050506040513d602081101562000e0457600080fd5b81019080805190602001909291905050509050919050565b60008060008373ffffffffffffffffffffffffffffffffffffffff1673ffffffffffffffffffffffffffffffffffffffff168152602001908152602001600020549050919050565b600073ffffffffffffffffffffffffffffffffffffffff166003836040518082805190602001908083835b6020831062000eb4578051825260208201915060208101905060208303925062000e8f565b6001836020036101000a038019825116818451168082178552505050505050905001915050908152602001604051809103902060009054906101000a900473ffffffffffffffffffffffffffffffffffffffff1673ffffffffffffffffffffffffffffffffffffffff16141562000f77576040517f08c379a000000000000000000000000000000000000000000000000000000000815260040180806020018281038252602881526020018062003ab86028913960400191505060405180910390fd5b62000f8d8162000f878462000d04565b620022a9565b34101562000fe7576040517f08c379a000000000000000000000000000000000000000000000000000000000815260040180806020018281038252602581526020018062003b026025913960400191505060405180910390fd5b8062000ff38362001675565b116200104b576040517f08c379a000000000000000000000000000000000000000000000000000000000815260040180806020018281038252603a81526020018062003b27603a913960400191505060405180910390fd5b6003826040518082805190602001908083835b602083106200108357805182526020820191506020810190506020830392506200105e565b6001836020036101000a038019825116818451168082178552505050505050905001915050908152602001604051809103902060009054906101000a900473ffffffffffffffffffffffffffffffffffffffff1673ffffffffffffffffffffffffffffffffffffffff1663a9059cbb33836040518363ffffffff1660e01b8152600401808373ffffffffffffffffffffffffffffffffffffffff1673ffffffffffffffffffffffffffffffffffffffff16815260200182815260200192505050602060405180830381600087803b1580156200115e57600080fd5b505af115801562001173573d6000803e3d6000fd5b505050506040513d60208110156200118a57600080fd5b81019080805190602001909291905050506200120e576040517f08c379a00000000000000000000000000000000000000000000000000000000081526004018080602001828103825260158152602001807f4d61726b65743a20426164207472616e7366657221000000000000000000000081525060200191505060405180910390fd5b5050565b60006003836040518082805190602001908083835b602083106200124c578051825260208201915060208101905060208303925062001227565b6001836020036101000a038019825116818451168082178552505050505050905001915050908152602001604051809103902060009054906101000a900473ffffffffffffffffffffffffffffffffffffffff1673ffffffffffffffffffffffffffffffffffffffff166370a08231836040518263ffffffff1660e01b8152600401808273ffffffffffffffffffffffffffffffffffffffff1673ffffffffffffffffffffffffffffffffffffffff16815260200191505060206040518083038186803b1580156200131d57600080fd5b505afa15801562001332573d6000803e3d6000fd5b505050506040513d60208110156200134957600080fd5b8101908080519060200190929190505050905092915050565b6003818051602081018201805184825260208301602085012081835280955050505050506000915054906101000a900473ffffffffffffffffffffffffffffffffffffffff1681565b60003385858585604051620013c09062002343565b808673ffffffffffffffffffffffffffffffffffffffff1673ffffffffffffffffffffffffffffffffffffffff1681526020018060200180602001858152602001848152602001838103835287818151815260200191508051906020019080838360005b838110156200144157808201518184015260208101905062001424565b50505050905090810190601f1680156200146f5780820380516001836020036101000a031916815260200191505b50838103825286818151815260200191508051906020019080838360005b83811015620014aa5780820151818401526020810190506200148d565b50505050905090810190601f168015620014d85780820380516001836020036101000a031916815260200191505b50975050505050505050604051809103906000f080158015620014ff573d6000803e3d6000fd5b509050806003866040518082805190602001908083835b602083106200153b578051825260208201915060208101905060208303925062001516565b6001836020036101000a038019825116818451168082178552505050505050905001915050908152602001604051809103902060006101000a81548173ffffffffffffffffffffffffffffffffffffffff021916908373ffffffffffffffffffffffffffffffffffffffff1602179055505050505050565b60006200165233846200164c85600160003373ffffffffffffffffffffffffffffffffffffffff1673ffffffffffffffffffffffffffffffffffffffff16815260200190815260200160002060008973ffffffffffffffffffffffffffffffffffffffff1673ffffffffffffffffffffffffffffffffffffffff168152602001908152602001600020546200219690919063ffffffff16565b62001cf7565b6001905092915050565b60006200166b33848462001ef2565b6001905092915050565b60006003826040518082805190602001908083835b60208310620016af57805182526020820191506020810190506020830392506200168a565b6001836020036101000a038019825116818451168082178552505050505050905001915050908152602001604051809103902060009054906101000a900473ffffffffffffffffffffffffffffffffffffffff1673ffffffffffffffffffffffffffffffffffffffff166370a08231306040518263ffffffff1660e01b8152600401808273ffffffffffffffffffffffffffffffffffffffff1673ffffffffffffffffffffffffffffffffffffffff16815260200191505060206040518083038186803b1580156200178057600080fd5b505afa15801562001795573d6000803e3d6000fd5b505050506040513d6020811015620017ac57600080fd5b81019080805190602001909291905050509050919050565b600073ffffffffffffffffffffffffffffffffffffffff166003836040518082805190602001908083835b60208310620018145780518252602082019150602081019050602083039250620017ef565b6001836020036101000a038019825116818451168082178552505050505050905001915050908152602001604051809103902060009054906101000a900473ffffffffffffffffffffffffffffffffffffffff1673ffffffffffffffffffffffffffffffffffffffff161415620018d7576040517f08c379a000000000000000000000000000000000000000000000000000000000815260040180806020018281038252602881526020018062003ab86028913960400191505060405180910390fd5b620019f2336003846040518082805190602001908083835b60208310620019145780518252602082019150602081019050602083039250620018ef565b6001836020036101000a038019825116818451168082178552505050505050905001915050908152602001604051809103902060009054906101000a900473ffffffffffffffffffffffffffffffffffffffff1673ffffffffffffffffffffffffffffffffffffffff1663893d20e86040518163ffffffff1660e01b815260040160206040518083038186803b158015620019ae57600080fd5b505afa158015620019c3573d6000803e3d6000fd5b505050506040513d6020811015620019da57600080fd5b81019080805190602001909291905050508362001cf7565b3073ffffffffffffffffffffffffffffffffffffffff166323b872dd6003846040518082805190602001908083835b6020831062001a46578051825260208201915060208101905060208303925062001a21565b6001836020036101000a038019825116818451168082178552505050505050905001915050908152602001604051809103902060009054906101000a900473ffffffffffffffffffffffffffffffffffffffff1673ffffffffffffffffffffffffffffffffffffffff1663893d20e86040518163ffffffff1660e01b815260040160206040518083038186803b15801562001ae057600080fd5b505afa15801562001af5573d6000803e3d6000fd5b505050506040513d602081101562001b0c57600080fd5b810190808051906020019092919050505033846040518463ffffffff1660e01b8152600401808473ffffffffffffffffffffffffffffffffffffffff1673ffffffffffffffffffffffffffffffffffffffff1681526020018373ffffffffffffffffffffffffffffffffffffffff1673ffffffffffffffffffffffffffffffffffffffff1681526020018281526020019350505050602060405180830381600087803b15801562001bbc57600080fd5b505af115801562001bd1573d6000803e3d6000fd5b505050506040513d602081101562001be857600080fd5b810190808051906020019092919050505062001c6c576040517f08c379a00000000000000000000000000000000000000000000000000000000081526004018080602001828103825260158152602001807f4d61726b65743a20426164207472616e7366657221000000000000000000000081525060200191505060405180910390fd5b5050565b6000600160008473ffffffffffffffffffffffffffffffffffffffff1673ffffffffffffffffffffffffffffffffffffffff16815260200190815260200160002060008373ffffffffffffffffffffffffffffffffffffffff1673ffffffffffffffffffffffffffffffffffffffff16815260200190815260200160002054905092915050565b600073ffffffffffffffffffffffffffffffffffffffff168373ffffffffffffffffffffffffffffffffffffffff16141562001d7f576040517f08c379a000000000000000000000000000000000000000000000000000000000815260040180806020018281038252602481526020018062003b866024913960400191505060405180910390fd5b600073ffffffffffffffffffffffffffffffffffffffff168273ffffffffffffffffffffffffffffffffffffffff16141562001e07576040517f08c379a000000000000000000000000000000000000000000000000000000000815260040180806020018281038252602281526020018062003ae06022913960400191505060405180910390fd5b80600160008573ffffffffffffffffffffffffffffffffffffffff1673ffffffffffffffffffffffffffffffffffffffff16815260200190815260200160002060008473ffffffffffffffffffffffffffffffffffffffff1673ffffffffffffffffffffffffffffffffffffffff168152602001908152602001600020819055508173ffffffffffffffffffffffffffffffffffffffff168373ffffffffffffffffffffffffffffffffffffffff167f8c5be1e5ebec7d5bd14f71427d1e84f3dd0314c0f7b2291e5b200ac8c7c3b925836040518082815260200191505060405180910390a3505050565b600073ffffffffffffffffffffffffffffffffffffffff168373ffffffffffffffffffffffffffffffffffffffff16141562001f7a576040517f08c379a000000000000000000000000000000000000000000000000000000000815260040180806020018281038252602581526020018062003b616025913960400191505060405180910390fd5b600073ffffffffffffffffffffffffffffffffffffffff168273ffffffffffffffffffffffffffffffffffffffff16141562002002576040517f08c379a000000000000000000000000000000000000000000000000000000000815260040180806020018281038252602381526020018062003a956023913960400191505060405180910390fd5b62002055816000808673ffffffffffffffffffffffffffffffffffffffff1673ffffffffffffffffffffffffffffffffffffffff168152602001908152602001600020546200219690919063ffffffff16565b6000808573ffffffffffffffffffffffffffffffffffffffff1673ffffffffffffffffffffffffffffffffffffffff16815260200190815260200160002081905550620020ea816000808573ffffffffffffffffffffffffffffffffffffffff1673ffffffffffffffffffffffffffffffffffffffff168152602001908152602001600020546200222090919063ffffffff16565b6000808473ffffffffffffffffffffffffffffffffffffffff1673ffffffffffffffffffffffffffffffffffffffff168152602001908152602001600020819055508173ffffffffffffffffffffffffffffffffffffffff168373ffffffffffffffffffffffffffffffffffffffff167fddf252ad1be2c89b69c2b068fc378daa952ba7f163c4a11628f55a4df523b3ef836040518082815260200191505060405180910390a3505050565b6000828211156200220f576040517f08c379a000000000000000000000000000000000000000000000000000000000815260040180806020018281038252601e8152602001807f536166654d6174683a207375627472616374696f6e206f766572666c6f77000081525060200191505060405180910390fd5b600082840390508091505092915050565b6000808284019050838110156200229f576040517f08c379a000000000000000000000000000000000000000000000000000000000815260040180806020018281038252601b8152602001807f536166654d6174683a206164646974696f6e206f766572666c6f77000000000081525060200191505060405180910390fd5b8091505092915050565b600080821480620022c55750828283850281620022c257fe5b04145b62002338576040517f08c379a00000000000000000000000000000000000000000000000000000000081526004018080602001828103825260168152602001807f4d61726b65743a206d756c7479706c79206572726f720000000000000000000081525060200191505060405180910390fd5b818302905092915050565b61174380620023528339019056fe60806040523480156200001157600080fd5b506040516200174338038062001743833981018060405260a08110156200003757600080fd5b810190808051906020019092919080516401000000008111156200005a57600080fd5b828101905060208101848111156200007157600080fd5b81518560018202830111640100000000821117156200008f57600080fd5b50509291906020018051640100000000811115620000ac57600080fd5b82810190506020810184811115620000c357600080fd5b8151856001820283011164010000000082111715620000e157600080fd5b5050929190602001805190602001909291908051906020019092919050505084600360006101000a81548173ffffffffffffffffffffffffffffffffffffffff021916908373ffffffffffffffffffffffffffffffffffffffff160217905550836004908051906020019062000159929190620003ea565b50826005908051906020019062000172929190620003ea565b50816006819055506200018c33826200019760201b60201c565b505050505062000499565b600073ffffffffffffffffffffffffffffffffffffffff168273ffffffffffffffffffffffffffffffffffffffff1614156200023b576040517f08c379a000000000000000000000000000000000000000000000000000000000815260040180806020018281038252601f8152602001807f45524332303a206d696e7420746f20746865207a65726f20616464726573730081525060200191505060405180910390fd5b62000257816002546200036160201b620011581790919060201c565b600281905550620002b5816000808573ffffffffffffffffffffffffffffffffffffffff1673ffffffffffffffffffffffffffffffffffffffff168152602001908152602001600020546200036160201b620011581790919060201c565b6000808473ffffffffffffffffffffffffffffffffffffffff1673ffffffffffffffffffffffffffffffffffffffff168152602001908152602001600020819055508173ffffffffffffffffffffffffffffffffffffffff16600073ffffffffffffffffffffffffffffffffffffffff167fddf252ad1be2c89b69c2b068fc378daa952ba7f163c4a11628f55a4df523b3ef836040518082815260200191505060405180910390a35050565b600080828401905083811015620003e0576040517f08c379a000000000000000000000000000000000000000000000000000000000815260040180806020018281038252601b8152602001807f536166654d6174683a206164646974696f6e206f766572666c6f77000000000081525060200191505060405180910390fd5b8091505092915050565b828054600181600116156101000203166002900490600052602060002090601f016020900481019282601f106200042d57805160ff19168380011785556200045e565b828001600101855582156200045e579182015b828111156200045d57825182559160200191906001019062000440565b5b5090506200046d919062000471565b5090565b6200049691905b808211156200049257600081600090555060010162000478565b5090565b90565b61129a80620004a96000396000f3fe6080604052600436106100e85760003560e01c8063893d20e81161008a578063a457c2d711610059578063a457c2d71461051a578063a9059cbb1461058d578063dd62ed3e14610600578063f8b2cb4f14610685576100e8565b8063893d20e8146104165780638da5cb5b1461046d57806398d5fdca146104c4578063a035b1fe146104ef576100e8565b806323b872dd116100c657806323b872dd1461021b57806339509351146102ae57806370a08231146103215780637284e41614610386576100e8565b806306fdde03146100ed578063095ea7b31461017d57806318160ddd146101f0575b600080fd5b3480156100f957600080fd5b506101026106dd565b6040518080602001828103825283818151815260200191508051906020019080838360005b83811015610142578082015181840152602081019050610127565b50505050905090810190601f16801561016f5780820380516001836020036101000a031916815260200191505b509250505060405180910390f35b34801561018957600080fd5b506101d6600480360360408110156101a057600080fd5b81019080803573ffffffffffffffffffffffffffffffffffffffff1690602001909291908035906020019092919050505061077b565b604051808215151515815260200191505060405180910390f35b3480156101fc57600080fd5b50610205610792565b6040518082815260200191505060405180910390f35b34801561022757600080fd5b506102946004803603606081101561023e57600080fd5b81019080803573ffffffffffffffffffffffffffffffffffffffff169060200190929190803573ffffffffffffffffffffffffffffffffffffffff1690602001909291908035906020019092919050505061079c565b604051808215151515815260200191505060405180910390f35b3480156102ba57600080fd5b50610307600480360360408110156102d157600080fd5b81019080803573ffffffffffffffffffffffffffffffffffffffff1690602001909291908035906020019092919050505061084d565b604051808215151515815260200191505060405180910390f35b34801561032d57600080fd5b506103706004803603602081101561034457600080fd5b81019080803573ffffffffffffffffffffffffffffffffffffffff1690602001909291905050506108f2565b6040518082815260200191505060405180910390f35b34801561039257600080fd5b5061039b61093a565b6040518080602001828103825283818151815260200191508051906020019080838360005b838110156103db5780820151818401526020810190506103c0565b50505050905090810190601f1680156104085780820380516001836020036101000a031916815260200191505b509250505060405180910390f35b34801561042257600080fd5b5061042b6109d8565b604051808273ffffffffffffffffffffffffffffffffffffffff1673ffffffffffffffffffffffffffffffffffffffff16815260200191505060405180910390f35b34801561047957600080fd5b50610482610a02565b604051808273ffffffffffffffffffffffffffffffffffffffff1673ffffffffffffffffffffffffffffffffffffffff16815260200191505060405180910390f35b3480156104d057600080fd5b506104d9610a28565b6040518082815260200191505060405180910390f35b3480156104fb57600080fd5b50610504610a32565b6040518082815260200191505060405180910390f35b34801561052657600080fd5b506105736004803603604081101561053d57600080fd5b81019080803573ffffffffffffffffffffffffffffffffffffffff16906020019092919080359060200190929190505050610a38565b604051808215151515815260200191505060405180910390f35b34801561059957600080fd5b506105e6600480360360408110156105b057600080fd5b81019080803573ffffffffffffffffffffffffffffffffffffffff16906020019092919080359060200190929190505050610add565b604051808215151515815260200191505060405180910390f35b34801561060c57600080fd5b5061066f6004803603604081101561062357600080fd5b81019080803573ffffffffffffffffffffffffffffffffffffffff169060200190929190803573ffffffffffffffffffffffffffffffffffffffff169060200190929190505050610af4565b6040518082815260200191505060405180910390f35b6106c76004803603602081101561069b57600080fd5b81019080803573ffffffffffffffffffffffffffffffffffffffff169060200190929190505050610b7b565b6040518082815260200191505060405180910390f35b60048054600181600116156101000203166002900480601f0160208091040260200160405190810160405280929190818152602001828054600181600116156101000203166002900480156107735780601f1061074857610100808354040283529160200191610773565b820191906000526020600020905b81548152906001019060200180831161075657829003601f168201915b505050505081565b6000610788338484610c3c565b6001905092915050565b6000600254905090565b60006107a9848484610e33565b610842843361083d85600160008a73ffffffffffffffffffffffffffffffffffffffff1673ffffffffffffffffffffffffffffffffffffffff16815260200190815260200160002060003373ffffffffffffffffffffffffffffffffffffffff1673ffffffffffffffffffffffffffffffffffffffff168152602001908152602001600020546110cf90919063ffffffff16565b610c3c565b600190509392505050565b60006108e833846108e385600160003373ffffffffffffffffffffffffffffffffffffffff1673ffffffffffffffffffffffffffffffffffffffff16815260200190815260200160002060008973ffffffffffffffffffffffffffffffffffffffff1673ffffffffffffffffffffffffffffffffffffffff1681526020019081526020016000205461115890919063ffffffff16565b610c3c565b6001905092915050565b60008060008373ffffffffffffffffffffffffffffffffffffffff1673ffffffffffffffffffffffffffffffffffffffff168152602001908152602001600020549050919050565b60058054600181600116156101000203166002900480601f0160208091040260200160405190810160405280929190818152602001828054600181600116156101000203166002900480156109d05780601f106109a5576101008083540402835291602001916109d0565b820191906000526020600020905b8154815290600101906020018083116109b357829003601f168201915b505050505081565b6000600360009054906101000a900473ffffffffffffffffffffffffffffffffffffffff16905090565b600360009054906101000a900473ffffffffffffffffffffffffffffffffffffffff1681565b6000600654905090565b60065481565b6000610ad33384610ace85600160003373ffffffffffffffffffffffffffffffffffffffff1673ffffffffffffffffffffffffffffffffffffffff16815260200190815260200160002060008973ffffffffffffffffffffffffffffffffffffffff1673ffffffffffffffffffffffffffffffffffffffff168152602001908152602001600020546110cf90919063ffffffff16565b610c3c565b6001905092915050565b6000610aea338484610e33565b6001905092915050565b6000600160008473ffffffffffffffffffffffffffffffffffffffff1673ffffffffffffffffffffffffffffffffffffffff16815260200190815260200160002060008373ffffffffffffffffffffffffffffffffffffffff1673ffffffffffffffffffffffffffffffffffffffff16815260200190815260200160002054905092915050565b60003073ffffffffffffffffffffffffffffffffffffffff166370a08231836040518263ffffffff1660e01b8152600401808273ffffffffffffffffffffffffffffffffffffffff1673ffffffffffffffffffffffffffffffffffffffff16815260200191505060206040518083038186803b158015610bfa57600080fd5b505afa158015610c0e573d6000803e3d6000fd5b505050506040513d6020811015610c2457600080fd5b81019080805190602001909291905050509050919050565b600073ffffffffffffffffffffffffffffffffffffffff168373ffffffffffffffffffffffffffffffffffffffff161415610cc2576040517f08c379a000000000000000000000000000000000000000000000000000000000815260040180806020018281038252602481526020018061124b6024913960400191505060405180910390fd5b600073ffffffffffffffffffffffffffffffffffffffff168273ffffffffffffffffffffffffffffffffffffffff161415610d48576040517f08c379a00000000000000000000000000000000000000000000000000000000081526004018080602001828103825260228152602001806112046022913960400191505060405180910390fd5b80600160008573ffffffffffffffffffffffffffffffffffffffff1673ffffffffffffffffffffffffffffffffffffffff16815260200190815260200160002060008473ffffffffffffffffffffffffffffffffffffffff1673ffffffffffffffffffffffffffffffffffffffff168152602001908152602001600020819055508173ffffffffffffffffffffffffffffffffffffffff168373ffffffffffffffffffffffffffffffffffffffff167f8c5be1e5ebec7d5bd14f71427d1e84f3dd0314c0f7b2291e5b200ac8c7c3b925836040518082815260200191505060405180910390a3505050565b600073ffffffffffffffffffffffffffffffffffffffff168373ffffffffffffffffffffffffffffffffffffffff161415610eb9576040517f08c379a00000000000000000000000000000000000000000000000000000000081526004018080602001828103825260258152602001806112266025913960400191505060405180910390fd5b600073ffffffffffffffffffffffffffffffffffffffff168273ffffffffffffffffffffffffffffffffffffffff161415610f3f576040517f08c379a00000000000000000000000000000000000000000000000000000000081526004018080602001828103825260238152602001806111e16023913960400191505060405180910390fd5b610f90816000808673ffffffffffffffffffffffffffffffffffffffff1673ffffffffffffffffffffffffffffffffffffffff168152602001908152602001600020546110cf90919063ffffffff16565b6000808573ffffffffffffffffffffffffffffffffffffffff1673ffffffffffffffffffffffffffffffffffffffff16815260200190815260200160002081905550611023816000808573ffffffffffffffffffffffffffffffffffffffff1673ffffffffffffffffffffffffffffffffffffffff1681526020019081526020016000205461115890919063ffffffff16565b6000808473ffffffffffffffffffffffffffffffffffffffff1673ffffffffffffffffffffffffffffffffffffffff168152602001908152602001600020819055508173ffffffffffffffffffffffffffffffffffffffff168373ffffffffffffffffffffffffffffffffffffffff167fddf252ad1be2c89b69c2b068fc378daa952ba7f163c4a11628f55a4df523b3ef836040518082815260200191505060405180910390a3505050565b600082821115611147576040517f08c379a000000000000000000000000000000000000000000000000000000000815260040180806020018281038252601e8152602001807f536166654d6174683a207375627472616374696f6e206f766572666c6f77000081525060200191505060405180910390fd5b600082840390508091505092915050565b6000808284019050838110156111d6576040517f08c379a000000000000000000000000000000000000000000000000000000000815260040180806020018281038252601b8152602001807f536166654d6174683a206164646974696f6e206f766572666c6f77000000000081525060200191505060405180910390fd5b809150509291505056fe45524332303a207472616e7366657220746f20746865207a65726f206164647265737345524332303a20617070726f766520746f20746865207a65726f206164647265737345524332303a207472616e736665722066726f6d20746865207a65726f206164647265737345524332303a20617070726f76652066726f6d20746865207a65726f2061646472657373a165627a7a7230582032564f682f2dd3264508a4d102e2cb180c920453aa6b5522bd490c6d07561a08002945524332303a207472616e7366657220746f20746865207a65726f20616464726573734d61726b65743a20627579536861726573202d204e616d6520646f6573206e6f742065786973742145524332303a20617070726f766520746f20746865207a65726f20616464726573734d61726b65743a20627579536861726573202d20496e636f727265637420616d6f756e74214d61726b65743a2062757950726f6a656374536861726573202d20546f206d616e792073686172657320796f752077616e7420746f206275792145524332303a207472616e736665722066726f6d20746865207a65726f206164647265737345524332303a20617070726f76652066726f6d20746865207a65726f2061646472657373a165627a7a72305820708a7fee769128f3f83da536f51f0e2afc044e52b3ac1c0142008017e565a6050029",
  "source": "pragma solidity ^0.5.0;\r\n// Market.deployed().then((instance)=>{app = instance;})\r\n// app.createProject(\"Name\", \"Discription\", 12, 100);\r\n\r\nimport './Project.sol';\r\nimport \"../node_modules/openzeppelin-solidity/contracts/token/ERC20/ERC20.sol\";\r\ncontract Market is ERC20{\r\n\tevent NewProject(uint zombieId, string name, uint dna);\r\n\r\n\tmapping(string => Project) public Projects;\r\n\r\n\tfunction createProject (string memory _name, string memory _description, uint256 _price, uint256 _shares) public {\r\n\t\tProject newProject = new Project(msg.sender, _name, _description, _price, _shares);\r\n  \tProjects[_name] = newProject;\r\n\t}\r\n\r\n\tfunction multiply(uint shares, uint price) internal pure returns (uint) {\r\n       require(price == 0 || (shares * price) / price == shares, \"Market: multyply error\");\r\n       return shares * price;\r\n   }\r\n\r\n\tfunction getSharesCount(string memory name) public view returns(uint256) {\r\n\t\treturn Projects[name].balanceOf(address(this));\r\n\t}\r\n\r\n\tfunction getClientSharesCount(string memory name, address client) public view returns(uint256) {\r\n\t\treturn Projects[name].balanceOf(client);\r\n\t}\r\n\r\n\tfunction getPrice(string memory name) public view returns(uint) {\r\n\t\treturn Projects[name].getPrice();\r\n\t}\r\n\r\n\tfunction buyShares(string memory name, uint256 _shares ) public payable{\r\n\t\trequire(address(Projects[name]) != address(0), \"Market: buyShares - Name does not exist!\");\r\n\t\trequire(msg.value >= multiply(_shares, getPrice(name)), \"Market: buyShares - Incorrect amount!\");\r\n\t\trequire(getSharesCount(name) > _shares, \"Market: buyProjectShares - To many shares you want to buy!\");\r\n\t\trequire(Projects[name].transfer(msg.sender, _shares), \"Market: Bad transfer!\");\r\n\t}\r\n\tfunction sellShares(string memory name, uint256 _shares ) public payable{\r\n\t\trequire(address(Projects[name]) != address(0), \"Market: buyShares - Name does not exist!\");\r\n\t\t// require(getClientSharesCount(name, msg.sender) < _shares, \"Market: buyProjectShares - To many shares you want to buy!\");\r\n\t\t_approve(msg.sender, Projects[name].getOwner(), _shares);\r\n\t\trequire(this.transferFrom(Projects[name].getOwner(), msg.sender, _shares), \"Market: Bad transfer!\");\r\n\t}\r\n\r\n}",
  "sourcePath": "C:/Truffle/MetaCoin/contracts/Market.sol",
  "compiler": {
    "name": "solc",
    "version": "0.5.8+commit.23d335f2.Emscripten.clang"
  },
  "schemaVersion": "3.0.16",
  "updatedAt": "2019-10-21T14:46:17.886Z",
  "devdoc": {
    "methods": {
      "allowance(address,address)": {
        "details": "See `IERC20.allowance`."
      },
      "approve(address,uint256)": {
        "details": "See `IERC20.approve`.     * Requirements:     * - `spender` cannot be the zero address."
      },
      "balanceOf(address)": {
        "details": "See `IERC20.balanceOf`."
      },
      "decreaseAllowance(address,uint256)": {
        "details": "Atomically decreases the allowance granted to `spender` by the caller.     * This is an alternative to `approve` that can be used as a mitigation for problems described in `IERC20.approve`.     * Emits an `Approval` event indicating the updated allowance.     * Requirements:     * - `spender` cannot be the zero address. - `spender` must have allowance for the caller of at least `subtractedValue`."
      },
      "increaseAllowance(address,uint256)": {
        "details": "Atomically increases the allowance granted to `spender` by the caller.     * This is an alternative to `approve` that can be used as a mitigation for problems described in `IERC20.approve`.     * Emits an `Approval` event indicating the updated allowance.     * Requirements:     * - `spender` cannot be the zero address."
      },
      "totalSupply()": {
        "details": "See `IERC20.totalSupply`."
      },
      "transfer(address,uint256)": {
        "details": "See `IERC20.transfer`.     * Requirements:     * - `recipient` cannot be the zero address. - the caller must have a balance of at least `amount`."
      },
      "transferFrom(address,address,uint256)": {
        "details": "See `IERC20.transferFrom`.     * Emits an `Approval` event indicating the updated allowance. This is not required by the EIP. See the note at the beginning of `ERC20`;     * Requirements: - `sender` and `recipient` cannot be the zero address. - `sender` must have a balance of at least `value`. - the caller must have allowance for `sender`'s tokens of at least `amount`."
      }
    }
  },
  "userdoc": {
    "methods": {}
  }
}