{
  "contractName": "Market",
  "abi": [
    {
      "constant": false,
      "inputs": [
        {
          "name": "spender",
          "type": "address"
        },
        {
          "name": "value",
          "type": "uint256"
        }
      ],
      "name": "approve",
      "outputs": [
        {
          "name": "",
          "type": "bool"
        }
      ],
      "payable": false,
      "stateMutability": "nonpayable",
      "type": "function"
    },
    {
      "constant": true,
      "inputs": [],
      "name": "totalSupply",
      "outputs": [
        {
          "name": "",
          "type": "uint256"
        }
      ],
      "payable": false,
      "stateMutability": "view",
      "type": "function"
    },
    {
      "constant": false,
      "inputs": [
        {
          "name": "sender",
          "type": "address"
        },
        {
          "name": "recipient",
          "type": "address"
        },
        {
          "name": "amount",
          "type": "uint256"
        }
      ],
      "name": "transferFrom",
      "outputs": [
        {
          "name": "",
          "type": "bool"
        }
      ],
      "payable": false,
      "stateMutability": "nonpayable",
      "type": "function"
    },
    {
      "constant": false,
      "inputs": [
        {
          "name": "spender",
          "type": "address"
        },
        {
          "name": "addedValue",
          "type": "uint256"
        }
      ],
      "name": "increaseAllowance",
      "outputs": [
        {
          "name": "",
          "type": "bool"
        }
      ],
      "payable": false,
      "stateMutability": "nonpayable",
      "type": "function"
    },
    {
      "constant": true,
      "inputs": [
        {
          "name": "account",
          "type": "address"
        }
      ],
      "name": "balanceOf",
      "outputs": [
        {
          "name": "",
          "type": "uint256"
        }
      ],
      "payable": false,
      "stateMutability": "view",
      "type": "function"
    },
    {
      "constant": true,
      "inputs": [
        {
          "name": "",
          "type": "string"
        }
      ],
      "name": "Projects",
      "outputs": [
        {
          "name": "",
          "type": "address"
        }
      ],
      "payable": false,
      "stateMutability": "view",
      "type": "function"
    },
    {
      "constant": false,
      "inputs": [
        {
          "name": "spender",
          "type": "address"
        },
        {
          "name": "subtractedValue",
          "type": "uint256"
        }
      ],
      "name": "decreaseAllowance",
      "outputs": [
        {
          "name": "",
          "type": "bool"
        }
      ],
      "payable": false,
      "stateMutability": "nonpayable",
      "type": "function"
    },
    {
      "constant": false,
      "inputs": [
        {
          "name": "recipient",
          "type": "address"
        },
        {
          "name": "amount",
          "type": "uint256"
        }
      ],
      "name": "transfer",
      "outputs": [
        {
          "name": "",
          "type": "bool"
        }
      ],
      "payable": false,
      "stateMutability": "nonpayable",
      "type": "function"
    },
    {
      "constant": true,
      "inputs": [
        {
          "name": "owner",
          "type": "address"
        },
        {
          "name": "spender",
          "type": "address"
        }
      ],
      "name": "allowance",
      "outputs": [
        {
          "name": "",
          "type": "uint256"
        }
      ],
      "payable": false,
      "stateMutability": "view",
      "type": "function"
    },
    {
      "anonymous": false,
      "inputs": [
        {
          "indexed": false,
          "name": "zombieId",
          "type": "uint256"
        },
        {
          "indexed": false,
          "name": "name",
          "type": "string"
        },
        {
          "indexed": false,
          "name": "dna",
          "type": "uint256"
        }
      ],
      "name": "NewProject",
      "type": "event"
    },
    {
      "anonymous": false,
      "inputs": [
        {
          "indexed": true,
          "name": "from",
          "type": "address"
        },
        {
          "indexed": true,
          "name": "to",
          "type": "address"
        },
        {
          "indexed": false,
          "name": "value",
          "type": "uint256"
        }
      ],
      "name": "Transfer",
      "type": "event"
    },
    {
      "anonymous": false,
      "inputs": [
        {
          "indexed": true,
          "name": "owner",
          "type": "address"
        },
        {
          "indexed": true,
          "name": "spender",
          "type": "address"
        },
        {
          "indexed": false,
          "name": "value",
          "type": "uint256"
        }
      ],
      "name": "Approval",
      "type": "event"
    },
    {
      "constant": false,
      "inputs": [
        {
          "name": "_name",
          "type": "string"
        },
        {
          "name": "_description",
          "type": "string"
        },
        {
          "name": "_price",
          "type": "uint256"
        },
        {
          "name": "_shares",
          "type": "uint256"
        }
      ],
      "name": "createProject",
      "outputs": [],
      "payable": false,
      "stateMutability": "nonpayable",
      "type": "function"
    },
    {
      "constant": true,
      "inputs": [
        {
          "name": "name",
          "type": "string"
        }
      ],
      "name": "getSharesCount",
      "outputs": [
        {
          "name": "",
          "type": "uint256"
        }
      ],
      "payable": false,
      "stateMutability": "view",
      "type": "function"
    },
    {
      "constant": true,
      "inputs": [
        {
          "name": "name",
          "type": "string"
        }
      ],
      "name": "getPrice",
      "outputs": [
        {
          "name": "",
          "type": "uint256"
        }
      ],
      "payable": false,
      "stateMutability": "view",
      "type": "function"
    },
    {
      "constant": false,
      "inputs": [
        {
          "name": "name",
          "type": "string"
        },
        {
          "name": "_shares",
          "type": "uint256"
        }
      ],
      "name": "buyShares",
      "outputs": [],
      "payable": true,
      "stateMutability": "payable",
      "type": "function"
    }
  ],
  "bytecode": "0x608060405234801561001057600080fd5b50613135806100206000396000f3fe608060405260043610620000d45760003560e01c806387b1dc3c116200008b578063a457c2d71162000061578063a457c2d7146200072f578063a9059cbb14620007a6578063c7470219146200081d578063dd62ed3e146200090057620000d4565b806387b1dc3c14620003d8578063905a864814620004a357806394ba970914620005b257620000d4565b8063095ea7b314620000d957806318160ddd146200015057806323b872dd146200017e578063395093511462000215578063524f3889146200028c57806370a08231146200036f575b600080fd5b348015620000e657600080fd5b506200013660048036036040811015620000ff57600080fd5b81019080803573ffffffffffffffffffffffffffffffffffffffff1690602001909291908035906020019092919050505062000989565b604051808215151515815260200191505060405180910390f35b3480156200015d57600080fd5b5062000168620009a2565b6040518082815260200191505060405180910390f35b3480156200018b57600080fd5b50620001fb60048036036060811015620001a457600080fd5b81019080803573ffffffffffffffffffffffffffffffffffffffff169060200190929190803573ffffffffffffffffffffffffffffffffffffffff16906020019092919080359060200190929190505050620009ac565b604051808215151515815260200191505060405180910390f35b3480156200022257600080fd5b5062000272600480360360408110156200023b57600080fd5b81019080803573ffffffffffffffffffffffffffffffffffffffff1690602001909291908035906020019092919050505062000a63565b604051808215151515815260200191505060405180910390f35b3480156200029957600080fd5b506200035960048036036020811015620002b257600080fd5b8101908080359060200190640100000000811115620002d057600080fd5b820183602082011115620002e357600080fd5b803590602001918460018302840111640100000000831117156200030657600080fd5b91908080601f016020809104026020016040519081016040528093929190818152602001838380828437600081840152601f19601f82011690508083019250505050505050919291929050505062000b0c565b6040518082815260200191505060405180910390f35b3480156200037c57600080fd5b50620003c2600480360360208110156200039557600080fd5b81019080803573ffffffffffffffffffffffffffffffffffffffff16906020019092919050505062000c24565b6040518082815260200191505060405180910390f35b620004a160048036036040811015620003f057600080fd5b81019080803590602001906401000000008111156200040e57600080fd5b8201836020820111156200042157600080fd5b803590602001918460018302840111640100000000831117156200044457600080fd5b91908080601f016020809104026020016040519081016040528093929190818152602001838380828437600081840152601f19601f8201169050808301925050505050505091929192908035906020019092919050505062000c6c565b005b348015620004b057600080fd5b506200057060048036036020811015620004c957600080fd5b8101908080359060200190640100000000811115620004e757600080fd5b820183602082011115620004fa57600080fd5b803590602001918460018302840111640100000000831117156200051d57600080fd5b91908080601f016020809104026020016040519081016040528093929190818152602001838380828437600081840152601f19601f82011690508083019250505050505050919291929050505062000fb6565b604051808273ffffffffffffffffffffffffffffffffffffffff1673ffffffffffffffffffffffffffffffffffffffff16815260200191505060405180910390f35b348015620005bf57600080fd5b506200072d60048036036080811015620005d857600080fd5b8101908080359060200190640100000000811115620005f657600080fd5b8201836020820111156200060957600080fd5b803590602001918460018302840111640100000000831117156200062c57600080fd5b91908080601f016020809104026020016040519081016040528093929190818152602001838380828437600081840152601f19601f820116905080830192505050505050509192919290803590602001906401000000008111156200069057600080fd5b820183602082011115620006a357600080fd5b80359060200191846001830284011164010000000083111715620006c657600080fd5b91908080601f016020809104026020016040519081016040528093929190818152602001838380828437600081840152601f19601f820116905080830192505050505050509192919290803590602001909291908035906020019092919050505062000fff565b005b3480156200073c57600080fd5b506200078c600480360360408110156200075557600080fd5b81019080803573ffffffffffffffffffffffffffffffffffffffff1690602001909291908035906020019092919050505062001207565b604051808215151515815260200191505060405180910390f35b348015620007b357600080fd5b506200080360048036036040811015620007cc57600080fd5b81019080803573ffffffffffffffffffffffffffffffffffffffff16906020019092919080359060200190929190505050620012b0565b604051808215151515815260200191505060405180910390f35b3480156200082a57600080fd5b50620008ea600480360360208110156200084357600080fd5b81019080803590602001906401000000008111156200086157600080fd5b8201836020820111156200087457600080fd5b803590602001918460018302840111640100000000831117156200089757600080fd5b91908080601f016020809104026020016040519081016040528093929190818152602001838380828437600081840152601f19601f820116905080830192505050505050509192919290505050620012c9565b6040518082815260200191505060405180910390f35b3480156200090d57600080fd5b5062000973600480360360408110156200092657600080fd5b81019080803573ffffffffffffffffffffffffffffffffffffffff169060200190929190803573ffffffffffffffffffffffffffffffffffffffff16906020019092919050505062001418565b6040518082815260200191505060405180910390f35b6000620009983384846200149f565b6001905092915050565b6000600254905090565b6000620009bb8484846200169a565b62000a58843362000a5285600160008a73ffffffffffffffffffffffffffffffffffffffff1673ffffffffffffffffffffffffffffffffffffffff16815260200190815260200160002060003373ffffffffffffffffffffffffffffffffffffffff1673ffffffffffffffffffffffffffffffffffffffff168152602001908152602001600020546200193e90919063ffffffff16565b6200149f565b600190509392505050565b600062000b02338462000afc85600160003373ffffffffffffffffffffffffffffffffffffffff1673ffffffffffffffffffffffffffffffffffffffff16815260200190815260200160002060008973ffffffffffffffffffffffffffffffffffffffff1673ffffffffffffffffffffffffffffffffffffffff16815260200190815260200160002054620019c890919063ffffffff16565b6200149f565b6001905092915050565b60006003826040518082805190602001908083835b6020831062000b46578051825260208201915060208101905060208303925062000b21565b6001836020036101000a038019825116818451168082178552505050505050905001915050908152602001604051809103902060009054906101000a900473ffffffffffffffffffffffffffffffffffffffff1673ffffffffffffffffffffffffffffffffffffffff166398d5fdca6040518163ffffffff1660e01b815260040160206040518083038186803b15801562000be057600080fd5b505afa15801562000bf5573d6000803e3d6000fd5b505050506040513d602081101562000c0c57600080fd5b81019080805190602001909291905050509050919050565b60008060008373ffffffffffffffffffffffffffffffffffffffff1673ffffffffffffffffffffffffffffffffffffffff168152602001908152602001600020549050919050565b600073ffffffffffffffffffffffffffffffffffffffff166003836040518082805190602001908083835b6020831062000cbc578051825260208201915060208101905060208303925062000c97565b6001836020036101000a038019825116818451168082178552505050505050905001915050908152602001604051809103902060009054906101000a900473ffffffffffffffffffffffffffffffffffffffff1673ffffffffffffffffffffffffffffffffffffffff16141562000d7f576040517f08c379a0000000000000000000000000000000000000000000000000000000008152600401808060200182810382526028815260200180620030526028913960400191505060405180910390fd5b62000d958162000d8f8462000b0c565b62001a51565b34101562000def576040517f08c379a00000000000000000000000000000000000000000000000000000000081526004018080602001828103825260258152602001806200309c6025913960400191505060405180910390fd5b6003826040518082805190602001908083835b6020831062000e27578051825260208201915060208101905060208303925062000e02565b6001836020036101000a038019825116818451168082178552505050505050905001915050908152602001604051809103902060009054906101000a900473ffffffffffffffffffffffffffffffffffffffff1673ffffffffffffffffffffffffffffffffffffffff1663a9059cbb33836040518363ffffffff1660e01b8152600401808373ffffffffffffffffffffffffffffffffffffffff1673ffffffffffffffffffffffffffffffffffffffff16815260200182815260200192505050602060405180830381600087803b15801562000f0257600080fd5b505af115801562000f17573d6000803e3d6000fd5b505050506040513d602081101562000f2e57600080fd5b810190808051906020019092919050505062000fb2576040517f08c379a00000000000000000000000000000000000000000000000000000000081526004018080602001828103825260158152602001807f4d61726b65743a20426164207472616e7366657221000000000000000000000081525060200191505060405180910390fd5b5050565b6003818051602081018201805184825260208301602085012081835280955050505050506000915054906101000a900473ffffffffffffffffffffffffffffffffffffffff1681565b60003385858585604051620010149062001aeb565b808673ffffffffffffffffffffffffffffffffffffffff1673ffffffffffffffffffffffffffffffffffffffff1681526020018060200180602001858152602001848152602001838103835287818151815260200191508051906020019080838360005b838110156200109557808201518184015260208101905062001078565b50505050905090810190601f168015620010c35780820380516001836020036101000a031916815260200191505b50838103825286818151815260200191508051906020019080838360005b83811015620010fe578082015181840152602081019050620010e1565b50505050905090810190601f1680156200112c5780820380516001836020036101000a031916815260200191505b50975050505050505050604051809103906000f08015801562001153573d6000803e3d6000fd5b509050806003866040518082805190602001908083835b602083106200118f57805182526020820191506020810190506020830392506200116a565b6001836020036101000a038019825116818451168082178552505050505050905001915050908152602001604051809103902060006101000a81548173ffffffffffffffffffffffffffffffffffffffff021916908373ffffffffffffffffffffffffffffffffffffffff1602179055505050505050565b6000620012a63384620012a085600160003373ffffffffffffffffffffffffffffffffffffffff1673ffffffffffffffffffffffffffffffffffffffff16815260200190815260200160002060008973ffffffffffffffffffffffffffffffffffffffff1673ffffffffffffffffffffffffffffffffffffffff168152602001908152602001600020546200193e90919063ffffffff16565b6200149f565b6001905092915050565b6000620012bf3384846200169a565b6001905092915050565b60006003826040518082805190602001908083835b60208310620013035780518252602082019150602081019050602083039250620012de565b6001836020036101000a038019825116818451168082178552505050505050905001915050908152602001604051809103902060009054906101000a900473ffffffffffffffffffffffffffffffffffffffff1673ffffffffffffffffffffffffffffffffffffffff166370a08231306040518263ffffffff1660e01b8152600401808273ffffffffffffffffffffffffffffffffffffffff1673ffffffffffffffffffffffffffffffffffffffff16815260200191505060206040518083038186803b158015620013d457600080fd5b505afa158015620013e9573d6000803e3d6000fd5b505050506040513d60208110156200140057600080fd5b81019080805190602001909291905050509050919050565b6000600160008473ffffffffffffffffffffffffffffffffffffffff1673ffffffffffffffffffffffffffffffffffffffff16815260200190815260200160002060008373ffffffffffffffffffffffffffffffffffffffff1673ffffffffffffffffffffffffffffffffffffffff16815260200190815260200160002054905092915050565b600073ffffffffffffffffffffffffffffffffffffffff168373ffffffffffffffffffffffffffffffffffffffff16141562001527576040517f08c379a0000000000000000000000000000000000000000000000000000000008152600401808060200182810382526024815260200180620030e66024913960400191505060405180910390fd5b600073ffffffffffffffffffffffffffffffffffffffff168273ffffffffffffffffffffffffffffffffffffffff161415620015af576040517f08c379a00000000000000000000000000000000000000000000000000000000081526004018080602001828103825260228152602001806200307a6022913960400191505060405180910390fd5b80600160008573ffffffffffffffffffffffffffffffffffffffff1673ffffffffffffffffffffffffffffffffffffffff16815260200190815260200160002060008473ffffffffffffffffffffffffffffffffffffffff1673ffffffffffffffffffffffffffffffffffffffff168152602001908152602001600020819055508173ffffffffffffffffffffffffffffffffffffffff168373ffffffffffffffffffffffffffffffffffffffff167f8c5be1e5ebec7d5bd14f71427d1e84f3dd0314c0f7b2291e5b200ac8c7c3b925836040518082815260200191505060405180910390a3505050565b600073ffffffffffffffffffffffffffffffffffffffff168373ffffffffffffffffffffffffffffffffffffffff16141562001722576040517f08c379a0000000000000000000000000000000000000000000000000000000008152600401808060200182810382526025815260200180620030c16025913960400191505060405180910390fd5b600073ffffffffffffffffffffffffffffffffffffffff168273ffffffffffffffffffffffffffffffffffffffff161415620017aa576040517f08c379a00000000000000000000000000000000000000000000000000000000081526004018080602001828103825260238152602001806200302f6023913960400191505060405180910390fd5b620017fd816000808673ffffffffffffffffffffffffffffffffffffffff1673ffffffffffffffffffffffffffffffffffffffff168152602001908152602001600020546200193e90919063ffffffff16565b6000808573ffffffffffffffffffffffffffffffffffffffff1673ffffffffffffffffffffffffffffffffffffffff1681526020019081526020016000208190555062001892816000808573ffffffffffffffffffffffffffffffffffffffff1673ffffffffffffffffffffffffffffffffffffffff16815260200190815260200160002054620019c890919063ffffffff16565b6000808473ffffffffffffffffffffffffffffffffffffffff1673ffffffffffffffffffffffffffffffffffffffff168152602001908152602001600020819055508173ffffffffffffffffffffffffffffffffffffffff168373ffffffffffffffffffffffffffffffffffffffff167fddf252ad1be2c89b69c2b068fc378daa952ba7f163c4a11628f55a4df523b3ef836040518082815260200191505060405180910390a3505050565b600082821115620019b7576040517f08c379a000000000000000000000000000000000000000000000000000000000815260040180806020018281038252601e8152602001807f536166654d6174683a207375627472616374696f6e206f766572666c6f77000081525060200191505060405180910390fd5b600082840390508091505092915050565b60008082840190508381101562001a47576040517f08c379a000000000000000000000000000000000000000000000000000000000815260040180806020018281038252601b8152602001807f536166654d6174683a206164646974696f6e206f766572666c6f77000000000081525060200191505060405180910390fd5b8091505092915050565b60008082148062001a6d575082828385028162001a6a57fe5b04145b62001ae0576040517f08c379a00000000000000000000000000000000000000000000000000000000081526004018080602001828103825260168152602001807f4d61726b65743a206d756c7479706c79206572726f720000000000000000000081525060200191505060405180910390fd5b818302905092915050565b6115358062001afa8339019056fe60806040523480156200001157600080fd5b506040516200153538038062001535833981018060405260a08110156200003757600080fd5b810190808051906020019092919080516401000000008111156200005a57600080fd5b828101905060208101848111156200007157600080fd5b81518560018202830111640100000000821117156200008f57600080fd5b50509291906020018051640100000000811115620000ac57600080fd5b82810190506020810184811115620000c357600080fd5b8151856001820283011164010000000082111715620000e157600080fd5b5050929190602001805190602001909291908051906020019092919050505084600360006101000a81548173ffffffffffffffffffffffffffffffffffffffff021916908373ffffffffffffffffffffffffffffffffffffffff16021790555083600490805190602001906200015992919062000437565b5082600590805190602001906200017292919062000437565b508160068190555080600781905550600754600860008773ffffffffffffffffffffffffffffffffffffffff1673ffffffffffffffffffffffffffffffffffffffff16815260200190815260200160002081905550620001d93382620001e460201b60201c565b5050505050620004e6565b600073ffffffffffffffffffffffffffffffffffffffff168273ffffffffffffffffffffffffffffffffffffffff16141562000288576040517f08c379a000000000000000000000000000000000000000000000000000000000815260040180806020018281038252601f8152602001807f45524332303a206d696e7420746f20746865207a65726f20616464726573730081525060200191505060405180910390fd5b620002a481600254620003ae60201b62000efd1790919060201c565b60028190555062000302816000808573ffffffffffffffffffffffffffffffffffffffff1673ffffffffffffffffffffffffffffffffffffffff16815260200190815260200160002054620003ae60201b62000efd1790919060201c565b6000808473ffffffffffffffffffffffffffffffffffffffff1673ffffffffffffffffffffffffffffffffffffffff168152602001908152602001600020819055508173ffffffffffffffffffffffffffffffffffffffff16600073ffffffffffffffffffffffffffffffffffffffff167fddf252ad1be2c89b69c2b068fc378daa952ba7f163c4a11628f55a4df523b3ef836040518082815260200191505060405180910390a35050565b6000808284019050838110156200042d576040517f08c379a000000000000000000000000000000000000000000000000000000000815260040180806020018281038252601b8152602001807f536166654d6174683a206164646974696f6e206f766572666c6f77000000000081525060200191505060405180910390fd5b8091505092915050565b828054600181600116156101000203166002900490600052602060002090601f016020900481019282601f106200047a57805160ff1916838001178555620004ab565b82800160010185558215620004ab579182015b82811115620004aa5782518255916020019190600101906200048d565b5b509050620004ba9190620004be565b5090565b620004e391905b80821115620004df576000816000905550600101620004c5565b5090565b90565b61103f80620004f66000396000f3fe608060405234801561001057600080fd5b50600436106100cf5760003560e01c80637284e4161161008c578063a035b1fe11610066578063a035b1fe1461040a578063a457c2d714610428578063a9059cbb1461048e578063dd62ed3e146104f4576100cf565b80637284e4161461031f5780638da5cb5b146103a257806398d5fdca146103ec576100cf565b806306fdde03146100d4578063095ea7b31461015757806318160ddd146101bd57806323b872dd146101db578063395093511461026157806370a08231146102c7575b600080fd5b6100dc61056c565b6040518080602001828103825283818151815260200191508051906020019080838360005b8381101561011c578082015181840152602081019050610101565b50505050905090810190601f1680156101495780820380516001836020036101000a031916815260200191505b509250505060405180910390f35b6101a36004803603604081101561016d57600080fd5b81019080803573ffffffffffffffffffffffffffffffffffffffff1690602001909291908035906020019092919050505061060a565b604051808215151515815260200191505060405180910390f35b6101c5610621565b6040518082815260200191505060405180910390f35b610247600480360360608110156101f157600080fd5b81019080803573ffffffffffffffffffffffffffffffffffffffff169060200190929190803573ffffffffffffffffffffffffffffffffffffffff1690602001909291908035906020019092919050505061062b565b604051808215151515815260200191505060405180910390f35b6102ad6004803603604081101561027757600080fd5b81019080803573ffffffffffffffffffffffffffffffffffffffff169060200190929190803590602001909291905050506106dc565b604051808215151515815260200191505060405180910390f35b610309600480360360208110156102dd57600080fd5b81019080803573ffffffffffffffffffffffffffffffffffffffff169060200190929190505050610781565b6040518082815260200191505060405180910390f35b6103276107ca565b6040518080602001828103825283818151815260200191508051906020019080838360005b8381101561036757808201518184015260208101905061034c565b50505050905090810190601f1680156103945780820380516001836020036101000a031916815260200191505b509250505060405180910390f35b6103aa610868565b604051808273ffffffffffffffffffffffffffffffffffffffff1673ffffffffffffffffffffffffffffffffffffffff16815260200191505060405180910390f35b6103f461088e565b6040518082815260200191505060405180910390f35b610412610898565b6040518082815260200191505060405180910390f35b6104746004803603604081101561043e57600080fd5b81019080803573ffffffffffffffffffffffffffffffffffffffff1690602001909291908035906020019092919050505061089e565b604051808215151515815260200191505060405180910390f35b6104da600480360360408110156104a457600080fd5b81019080803573ffffffffffffffffffffffffffffffffffffffff16906020019092919080359060200190929190505050610943565b604051808215151515815260200191505060405180910390f35b6105566004803603604081101561050a57600080fd5b81019080803573ffffffffffffffffffffffffffffffffffffffff169060200190929190803573ffffffffffffffffffffffffffffffffffffffff16906020019092919050505061095a565b6040518082815260200191505060405180910390f35b60048054600181600116156101000203166002900480601f0160208091040260200160405190810160405280929190818152602001828054600181600116156101000203166002900480156106025780601f106105d757610100808354040283529160200191610602565b820191906000526020600020905b8154815290600101906020018083116105e557829003601f168201915b505050505081565b60006106173384846109e1565b6001905092915050565b6000600754905090565b6000610638848484610bd8565b6106d184336106cc85600160008a73ffffffffffffffffffffffffffffffffffffffff1673ffffffffffffffffffffffffffffffffffffffff16815260200190815260200160002060003373ffffffffffffffffffffffffffffffffffffffff1673ffffffffffffffffffffffffffffffffffffffff16815260200190815260200160002054610e7490919063ffffffff16565b6109e1565b600190509392505050565b6000610777338461077285600160003373ffffffffffffffffffffffffffffffffffffffff1673ffffffffffffffffffffffffffffffffffffffff16815260200190815260200160002060008973ffffffffffffffffffffffffffffffffffffffff1673ffffffffffffffffffffffffffffffffffffffff16815260200190815260200160002054610efd90919063ffffffff16565b6109e1565b6001905092915050565b6000600860008373ffffffffffffffffffffffffffffffffffffffff1673ffffffffffffffffffffffffffffffffffffffff168152602001908152602001600020549050919050565b60058054600181600116156101000203166002900480601f0160208091040260200160405190810160405280929190818152602001828054600181600116156101000203166002900480156108605780601f1061083557610100808354040283529160200191610860565b820191906000526020600020905b81548152906001019060200180831161084357829003601f168201915b505050505081565b600360009054906101000a900473ffffffffffffffffffffffffffffffffffffffff1681565b6000600654905090565b60065481565b6000610939338461093485600160003373ffffffffffffffffffffffffffffffffffffffff1673ffffffffffffffffffffffffffffffffffffffff16815260200190815260200160002060008973ffffffffffffffffffffffffffffffffffffffff1673ffffffffffffffffffffffffffffffffffffffff16815260200190815260200160002054610e7490919063ffffffff16565b6109e1565b6001905092915050565b6000610950338484610bd8565b6001905092915050565b6000600160008473ffffffffffffffffffffffffffffffffffffffff1673ffffffffffffffffffffffffffffffffffffffff16815260200190815260200160002060008373ffffffffffffffffffffffffffffffffffffffff1673ffffffffffffffffffffffffffffffffffffffff16815260200190815260200160002054905092915050565b600073ffffffffffffffffffffffffffffffffffffffff168373ffffffffffffffffffffffffffffffffffffffff161415610a67576040517f08c379a0000000000000000000000000000000000000000000000000000000008152600401808060200182810382526024815260200180610ff06024913960400191505060405180910390fd5b600073ffffffffffffffffffffffffffffffffffffffff168273ffffffffffffffffffffffffffffffffffffffff161415610aed576040517f08c379a0000000000000000000000000000000000000000000000000000000008152600401808060200182810382526022815260200180610fa96022913960400191505060405180910390fd5b80600160008573ffffffffffffffffffffffffffffffffffffffff1673ffffffffffffffffffffffffffffffffffffffff16815260200190815260200160002060008473ffffffffffffffffffffffffffffffffffffffff1673ffffffffffffffffffffffffffffffffffffffff168152602001908152602001600020819055508173ffffffffffffffffffffffffffffffffffffffff168373ffffffffffffffffffffffffffffffffffffffff167f8c5be1e5ebec7d5bd14f71427d1e84f3dd0314c0f7b2291e5b200ac8c7c3b925836040518082815260200191505060405180910390a3505050565b600073ffffffffffffffffffffffffffffffffffffffff168373ffffffffffffffffffffffffffffffffffffffff161415610c5e576040517f08c379a0000000000000000000000000000000000000000000000000000000008152600401808060200182810382526025815260200180610fcb6025913960400191505060405180910390fd5b600073ffffffffffffffffffffffffffffffffffffffff168273ffffffffffffffffffffffffffffffffffffffff161415610ce4576040517f08c379a0000000000000000000000000000000000000000000000000000000008152600401808060200182810382526023815260200180610f866023913960400191505060405180910390fd5b610d35816000808673ffffffffffffffffffffffffffffffffffffffff1673ffffffffffffffffffffffffffffffffffffffff16815260200190815260200160002054610e7490919063ffffffff16565b6000808573ffffffffffffffffffffffffffffffffffffffff1673ffffffffffffffffffffffffffffffffffffffff16815260200190815260200160002081905550610dc8816000808573ffffffffffffffffffffffffffffffffffffffff1673ffffffffffffffffffffffffffffffffffffffff16815260200190815260200160002054610efd90919063ffffffff16565b6000808473ffffffffffffffffffffffffffffffffffffffff1673ffffffffffffffffffffffffffffffffffffffff168152602001908152602001600020819055508173ffffffffffffffffffffffffffffffffffffffff168373ffffffffffffffffffffffffffffffffffffffff167fddf252ad1be2c89b69c2b068fc378daa952ba7f163c4a11628f55a4df523b3ef836040518082815260200191505060405180910390a3505050565b600082821115610eec576040517f08c379a000000000000000000000000000000000000000000000000000000000815260040180806020018281038252601e8152602001807f536166654d6174683a207375627472616374696f6e206f766572666c6f77000081525060200191505060405180910390fd5b600082840390508091505092915050565b600080828401905083811015610f7b576040517f08c379a000000000000000000000000000000000000000000000000000000000815260040180806020018281038252601b8152602001807f536166654d6174683a206164646974696f6e206f766572666c6f77000000000081525060200191505060405180910390fd5b809150509291505056fe45524332303a207472616e7366657220746f20746865207a65726f206164647265737345524332303a20617070726f766520746f20746865207a65726f206164647265737345524332303a207472616e736665722066726f6d20746865207a65726f206164647265737345524332303a20617070726f76652066726f6d20746865207a65726f2061646472657373a165627a7a72305820db01bc28f5f2759cbbc52a3a99b5a008a65c60d65a5890a264c15222f53f6a86002945524332303a207472616e7366657220746f20746865207a65726f20616464726573734d61726b65743a20627579536861726573202d204e616d6520646f6573206e6f742065786973742145524332303a20617070726f766520746f20746865207a65726f20616464726573734d61726b65743a20627579536861726573202d20496e636f727265637420616d6f756e742145524332303a207472616e736665722066726f6d20746865207a65726f206164647265737345524332303a20617070726f76652066726f6d20746865207a65726f2061646472657373a165627a7a723058207a7cbb836489ee96be2d5d58b48a1009fa798919d437a4bc61dc8f318db764350029",
  "source": "pragma solidity ^0.5.0;\r\n// Market.deployed().then((instance)=>{app = instance;})\r\n// app.createProject(\"Name\", \"Discription\", 12, 100);\r\n\r\nimport './Project.sol';\r\nimport \"../node_modules/openzeppelin-solidity/contracts/token/ERC20/ERC20.sol\";\r\ncontract Market is ERC20{\r\n\tevent NewProject(uint zombieId, string name, uint dna);\r\n\r\n\tmapping(string => Project) public Projects;\r\n\r\n\tfunction createProject (string memory _name, string memory _description, uint256 _price, uint256 _shares) public {\r\n\t\tProject newProject = new Project(msg.sender, _name, _description, _price, _shares);\r\n  \tProjects[_name] = newProject;\r\n\t}\r\n\r\n\tfunction multiply(uint shares, uint price) internal pure returns (uint) {\r\n       require(price == 0 || (shares * price) / price == shares, \"Market: multyply error\");\r\n       return shares * price;\r\n   }\r\n\r\n\tfunction getSharesCount(string memory name) public view returns(uint256) {\r\n\t\treturn Projects[name].balanceOf(address(this));\r\n\t}\r\n\tfunction getPrice(string memory name) public view returns(uint) {\r\n\t\treturn Projects[name].getPrice();\r\n\t}\r\n\tfunction buyShares(string memory name, uint256 _shares ) public payable{\r\n\t\trequire(address(Projects[name]) != address(0), \"Market: buyShares - Name does not exist!\");\r\n\t\trequire(msg.value >= multiply(_shares, getPrice(name)), \"Market: buyShares - Incorrect amount!\");\r\n\t\t// require(getSharesCount(name) >= _shares, \"Market: buyProjectShares - To many shares you want to buy!\");\r\n\t\trequire(Projects[name].transfer(msg.sender, _shares), \"Market: Bad transfer!\");\r\n\t}\r\n\t// function sellShares(string memory name, address sender, uint256 _shares ) public payable{\r\n\t// \trequire(address(Projects[name]) != address(0), \"Market: sellShares - Name does not exist!\");\r\n\t// \trequire(Projects[name].balanceOf(sender) < _shares, \"Market: sellShares - Incorrect amount!\");\r\n\t// \trequire(Projects[name].transferFrom(sender, address(this), _shares), \"Market:sellShares Bad transfer!\");\r\n\t// }\r\n\t// function transfer(string memory name, uint256 _shares) public payable {\r\n\t// \trequire(address(Projects[name]) != address(0), \"Market: buyShares - Name does not exist!\");\r\n\t// \trequire(msg.value >= multiply(_shares, getPrice(name)), \"Market: buyShares - Incorrect amount!\");\r\n\t// \trequire(getSharesCount(name) > _shares, \"Market: buyProjectShares - To many shares you want to buy!\");\r\n\t// \trequire(Projects[name].transfer(msg.sender, _shares), \"Market: Bad transfer!\");\r\n\t// }\r\n}",
  "sourcePath": "C:/Truffle/SmartContracts/contracts/Market.sol",
  "compiler": {
    "name": "solc",
    "version": "0.5.8+commit.23d335f2.Emscripten.clang"
  },
  "schemaVersion": "3.0.16",
  "updatedAt": "2019-10-22T12:09:19.177Z",
  "devdoc": {
    "methods": {
      "allowance(address,address)": {
        "details": "See `IERC20.allowance`."
      },
      "approve(address,uint256)": {
        "details": "See `IERC20.approve`.     * Requirements:     * - `spender` cannot be the zero address."
      },
      "balanceOf(address)": {
        "details": "See `IERC20.balanceOf`."
      },
      "decreaseAllowance(address,uint256)": {
        "details": "Atomically decreases the allowance granted to `spender` by the caller.     * This is an alternative to `approve` that can be used as a mitigation for problems described in `IERC20.approve`.     * Emits an `Approval` event indicating the updated allowance.     * Requirements:     * - `spender` cannot be the zero address. - `spender` must have allowance for the caller of at least `subtractedValue`."
      },
      "increaseAllowance(address,uint256)": {
        "details": "Atomically increases the allowance granted to `spender` by the caller.     * This is an alternative to `approve` that can be used as a mitigation for problems described in `IERC20.approve`.     * Emits an `Approval` event indicating the updated allowance.     * Requirements:     * - `spender` cannot be the zero address."
      },
      "totalSupply()": {
        "details": "See `IERC20.totalSupply`."
      },
      "transfer(address,uint256)": {
        "details": "See `IERC20.transfer`.     * Requirements:     * - `recipient` cannot be the zero address. - the caller must have a balance of at least `amount`."
      },
      "transferFrom(address,address,uint256)": {
        "details": "See `IERC20.transferFrom`.     * Emits an `Approval` event indicating the updated allowance. This is not required by the EIP. See the note at the beginning of `ERC20`;     * Requirements: - `sender` and `recipient` cannot be the zero address. - `sender` must have a balance of at least `value`. - the caller must have allowance for `sender`'s tokens of at least `amount`."
      }
    }
  },
  "userdoc": {
    "methods": {}
  }
}